:1000000080311C28013401347E1480310030860098
:10001000003087000B1F0D280E281A282E001A1CEE
:10002000122813281A28101C162817281A288E316F
:10003000A72680317E10090080311E2880310320E0
:100040008031FB002100803102208031E900FA017B
:10005000A03084000030850030308E310F26803192
:10006000203084000130850020308E310F26803111
:100070007E1020008F31892F23000F0C890C01394D
:10008000F40011081F397404031D472848283C2830
:10009000111411184C284D2849280F0C890C0139CE
:1000A000F40011081F397404031D572858284D28DF
:1000B0009A308531F825803123000F0C890C0139E5
:1000C000F40011081F397404031D672868285C2890
:1000D00001308531F825803123000F0C890C01395E
:1000E000F40011081F397404031D772878286C2840
:1000F000911491187C287D2879280F0C890C0139DE
:10010000F40011081F397404031D872888287D28EE
:100110009B308531F825803123000F0C890C013983
:10012000F40011081F397404031D972898288C289F
:100130008E31D7268031F50023000F0C890C013950
:10014000F40011081F397404031DA728A8289C284F
:1001500091161116111AAD28AE28AA280F0C890C79
:100160000139F40011081F397404031DB828B92897
:10017000AE2811151119BD28BE28BA28751FC1282F
:10018000C2283C280F0C890C0139F40011081F39D2
:100190007404031DCC28CD28C22811141118D128AD
:1001A000D228CE280F0C890C0139F40011081F3910
:1001B0007404031DDC28DD28D2289A308531F82507
:1001C000803123000F0C890C0139F40011081F390C
:1001D0007404031DEC28ED28E12800308531F82552
:1001E000803123000F0C890C0139F40011081F39EC
:1001F0007404031DFC28FD28F1289114911801298D
:100200000229FE280F0C890C0139F40011081F394E
:100210007404031D0C290D2902299B308531F82512
:10022000803123000F0C890C0139F40011081F39AB
:100230007404031D1C291D2911298E31D7268031F4
:10024000F50023000F0C890C0139F40011081F3947
:100250007404031D2C292D29212991161116111A18
:10026000322933292F290F0C890C0139F400110888
:100270001F397404031D3D293E2933291115111915
:10028000422943293F2975080800200041088600BB
:100290008701403FC300413FC40043088400440835
:1002A00085001200253A031D56295729EE294108D9
:1002B000860087010130810741310318810A21003E
:1002C000C401C5010030FA00FF30C600FF30C7008E
:1002D0002000CB018829FA144108860087010130EB
:1002E000810741310318810A88290130CB00882910
:1002F000410886008701403FC300413FC4004308D6
:100300008400440885000008303A03196B297529D8
:100310004B0803198C298D2978294108F8004208D7
:10032000F90084314B24813179082100C500780817
:10033000C400C51F9C299D29A3297A14C409C50995
:10034000C40A0319C50A2000410886008701403FFE
:10035000CC00413FCD004C0884004D0885001200C0
:10036000643A0319B429B529BF294C0884004D0803
:1003700085001200693A031DBE29BF29E4294208FD
:100380008600870101088400850102308107003F53
:10039000C700013FC8004C08013EC30000304D3D7E
:1003A000C4004108860087014308C03F4408C13F9C
:1003B0004008B3003F08B2004808B5004708B40041
:1003C000823109228131082A2000410886008701F4
:1003D0000130810741310318810A082A410886004B
:1003E0008701403FC300413FC400430884004408E4
:1003F00085000008C500C6014508F2004608F30064
:100400004008F5003F08F400853102258131E429D8
:10041000080001302000B900B51B0F2A112A013055
:10042000122A0030BC00210045082000BB0021003A
:1004300044082000BA003C0803191F2A202A342A45
:10044000FF30BA07FF30BB3D3C08031D282A292A8C
:100450002E2A2B30B7000030B800322A2D30B700DA
:100460000030B8003708BC001F30BD000030BE00AF
:100470002200BF01702AFF302000BD07FF30BE3DC3
:100480003D08203E8600013087000A30F20000302F
:10049000F3003508F5003408F40085315B2582311E
:1004A0007308F9007208F8008E31802682317808CE
:1004B000303E81002000B901FF30BA07FF30BB3D5C
:1004C0000A30F2000030F3003508F5003408F4007B
:1004D0008431A724823173082000B5007208B4006B
:1004E00020003E08803AB60080303602031D7A2A8A
:1004F00001303D02031C7D2A7E2A9B2A20003408FD
:100500003504031D842A852A3B2A3908031D892ABC
:100510008A2A3B2A3B08803AB60080303602031D07
:10052000932A01303A02031C962A972A9B2AFA182A
:100530009A2A9B2A3B2A20003C080319A02AA12AB8
:10054000AC2AFF30BD07FF30BE3D3D08203E86008F
:10055000013087003C0881003308AC003208AB0052
:100560003D08203EAD003B08AF003A08AE008631A2
:100570008A2682310800F6007608F039F7007608FE
:10058000F5000430F535890BC22A7508F039F800FA
:1005900023000F0C890C0139F50011081F3975046F
:1005A000031DD32AD42AC82A11141118D82AD92AEB
:1005B000D52A0F0C890C0139F50011081F39750473
:1005C000031DE32AE42AD92A4E308531F8258231E9
:1005D00023000F0C890C0139F50011081F3975042F
:1005E000031DF32AF42AE82A7708740408388531B1
:1005F000F825823123000F0C890C0139F500110810
:100600001F397504031D052B062BFA2A770874047D
:100610000C388531F825823123000F0C890C013903
:10062000F50011081F397504031D172B182B0C2B0F
:1006300000007708740408388531F82582312300DA
:100640000F0C890C0139F50011081F397504031DC1
:100650002A2B2B2B1F2B7808740408388531F8259A
:10066000823123000F0C890C0139F50011081F3964
:100670007504031D3C2B3D2B312B780874040C387A
:100680008531F825823123000F0C890C0139F500E2
:1006900011081F397504031D4E2B4F2B432B0000EF
:1006A0007808740408388531F825823123000F0C4E
:1006B000890C0139F50011081F397504031D612BE0
:1006C000622B562B11151119662B672B632B1030DB
:1006D000890B682B003208004130F900EE30890B9D
:1006E0006F2BF90B6F2B0032303087311527833198
:1006F0003430873115278331A630890B7D2B0032AA
:1007000030308731152783310730F9007D30890B70
:10071000872BF90B872B0000303087311527833169
:100720003430873115278331A630890B952B003261
:1007300030308731152783312130890B9D2B000004
:100740003030873115278331343087311527833195
:10075000A630890BA92B0032303087311527833121
:100760002130890BB12B00002030873115278331D0
:100770002430873115278331A630890BBD2B0032F9
:1007800020308731152783310730F9007D30890B00
:10079000C72BF90BC72B0000F40128308231BB2294
:1007A0008331F40106308231BB228331F4010F30F2
:1007B0008231BB228331F40101308231BB2283318B
:1007C0000330F9009830890BE32BF90BE32B080079
:1007D000D6302000D6002030D7009030D80021003D
:1007E0003F08D000D10150082000D9002100510855
:1007F0002000DA0021004008D200D3015208200076
:10080000DB00210053082000DC0021004108D40057
:10081000D50154082000DD00210055082000DE002D
:100820008F312C2783312000A00100308E31922699
:100830008331D6302000A0000030A1008E31BE26CA
:10084000833121004B08031D262C272C4A2C200025
:10085000A00101308E3192268331D6302000D6009F
:100860003330D7009030D80021004D08D000D1019E
:1008700050082000D900210051082000DA008F31F3
:100880002C278331D6302000A0000030A1008E310B
:10089000BE26833108002000A401A5017808860047
:1008A0008701403FA000413FA100200884002108AB
:1008B000850012002A3A031D5E2C5F2C8E2C7808CE
:1008C000860087010130810741310318810A7908C8
:1008D0008600870101088400850102308107003FFE
:1008E000A400013FA500A22C2508F3002408F20073
:1008F0000A30F4000030F5008F314A27843120009F
:1009000023087207A4000030733DA5007808860014
:1009100087010130810741310318810A7808860078
:100920008701403FA000413FA1002008840021082A
:1009300085000008D03EA3000A302302031CA12C2E
:10094000A22C742C2508F9002408F8000800F701EF
:10095000F31FAB2CAC2CB32CF209F309F20A0319E8
:10096000F30A0130F700F51FB62CB72CBE2CF409A2
:10097000F509F40A0319F50A0130F706F801F9013F
:10098000720873040319C52CC62CF32C0130F60031
:10099000D02C0130F235F30D890BCA2C0130F6074B
:1009A000F31FD32CD42CC92C0130F835F90D890B49
:1009B000D52C73087502031DDF2C72087402031C0A
:1009C000E22CE32CE82C7208F4027308F53B78144F
:1009D0000130F336F20C890BE92C0130F602031DCD
:1009E000F22CF32CD42C77080319F72CF82CFD2CBF
:1009F000F809F909F80A0319F90A7908F3007808DF
:100A0000F2000800740875040319072D082D0E2D37
:100A100074087504031D0D2D0E2D132D72088E31D3
:100A2000042685315A2D7408860087014931160045
:100A3000010403191C2D1D2D3C2D7408860087010F
:100A40004931403F2000A000413FA10074088600CA
:100A500087014231403FA200413FA3002308803A72
:100A6000A4002108803A2402031D382D2008220208
:100A700003183B2D3C2D5A2D740886008701423106
:100A80007408840075088500003F2000A000013F25
:100A9000A100403F20078400413F213D85007208AE
:100AA000800074088600870142310130810741319E
:100AB0000318810A0800F701F51F5F2D602D672DCF
:100AC000F409F509F40A0319F50A0130F700F31FD8
:100AD0006A2D6B2D702DF209F309F20A0319F30A3E
:100AE000720873040319752D762D9D2D0130F600C3
:100AF000802D0130F235F30D890B7A2D0130F60788
:100B0000F31F832D842D792D73087502031D8A2D03
:100B100072087402031C8D2D8E2D922D7208F40222
:100B20007308F53B0130F336F20C890B932D01303D
:100B3000F602031D9C2D9D2D842D77080319A12DF0
:100B4000A22DA72DF409F509F40A0319F50A750871
:100B5000F3007408F2000800E32D1830F2000030B2
:100B6000F3003F08013EF400003003180130F500A7
:100B700085315B25853172082100BF00F72D3C309F
:100B8000F2000030F3004008013EF400003003188A
:100B90000130F50085315B25853172082100C000E8
:100BA000F72D3C30F2000030F3004108013EF40024
:100BB000003003180130F50085315B25853172085E
:100BC0002100C100F72D21004B08F800F901790838
:100BD000003A0319EC2DF72D7808013A0319AD2DD1
:100BE000033A0319BF2D013A0319D12DF72D08003F
:100BF000F300730823008C00901FFF2D002E012EA0
:100C0000422E0F301005F200083072060319092E2B
:100C10000A2E202E0F301005F2000B307206031939
:100C2000122E132E202E10162E000F1C182E192EE9
:100C3000142E23000F191D2E1E2E422E0F08422E99
:100C40000F301005F200083072060319282E292EE5
:100C5000322E0F301005F2000B307206031D312EBC
:100C6000322E422E0F18352E362E322E0F0C890CB6
:100C70000139F20011081F397204031D402E412E64
:100C8000362E1108080020009A019901960197015B
:100C90009801073095000F309100FF309200FF302F
:100CA0009300FF309400FF303E00D900C730CE00E3
:100CB000EF30C3000730E4000F30B800DA01E5017F
:100CC0001030C400B9012030CF00E601BA01C501DF
:100CD000D001DB01FF30BB00FF30C600FF30D10088
:100CE000FF30DC000730E700FF30BC00FF30C700FA
:100CF000FF30D200FF30DD000730E80013303D0048
:100D0000C50014303E00A3001530A40014303D008F
:100D1000C60008007A1C8D2E8E2E982E20002D08DD
:100D2000A5002C08A7002B08A6008F31AA27863122
:100D30002000AF1F9C2E9D2E9F2EAE01AF01B00153
:100D4000B101B32E2030F2000030F30020002C0857
:100D5000F5002B08F4008531022586310130200092
:100D6000B0070030B13D3108803AF8002F08803AD2
:100D70007802031DBD2E2E083002031CC02EC12E8A
:100D8000A22E7A18C42EC52ECF2E20002D08A50025
:100D90002C08A7002B08A6008F31AA27863108004F
:100DA000FC2E01302100CB000F308E31152686310C
:100DB0002000A001A00A00308E3192268631142F27
:100DC00002302100CB0004302000A00000308E3122
:100DD00092268631142F03302100CB0007302000EB
:100DE000A00000308E3192268631142F2100CB01D5
:100DF0008731CF278631142F21004B082000A50012
:100E0000A6012608003A0319062FF62E2508003AF7
:100E10000319D12E013A0319E02E033A0319EB2EE0
:100E2000013A0319F62EF62E0800F50023000F0CE8
:100E3000890C0139F40011081F397404031D212F96
:100E4000222F162F11141118262F272F232F0F0CA6
:100E5000890C0139F40011081F397404031D312F66
:100E6000322F272F4E308531F825873123000F0C84
:100E7000890C0139F40011081F397404031D412F36
:100E8000422F362F75088531F825873123000F0C46
:100E9000890C0139F40011081F397404031D512F06
:100EA000522F462F11151119562F572F532F080067
:100EB00020000D0E0139A7000E0E890C0139A80083
:100EC0007B03031D642F652F6D2F2708031D692FDA
:100ED0006A2F6D2F8631D02687312000270803190D
:100EE000722F742F0130752F00302100CF0069035D
:100EF000031D7B2F7C2F852F20002808031D812FA9
:100F0000822F852F8531AC258731200028080319D1
:100F10008A2F8C2F01308D2F00302100CE00200031
:100F20002708FB0028082100E900080021004B08E1
:100F3000031D9B2F9C2FA02F8331E8238731CE2FB9
:100F40008331E8238731B92FA001A00A00308E3108
:100F500092268731CE2F0430A00000308E319226A9
:100F60008731CE2F0730A00000308E319226873196
:100F7000CE2F21004B082000EB00EC016C08003A5A
:100F80000319C32FCE2F6B08013A0319A42F033A7C
:100F90000319AB2F013A0319B22FCE2F08000130ED
:100FA0008E31152687312000A00100308E31922627
:100FB000873140302000A0009030A1008E31BE2645
:100FC00087312000A00101308E31922687315830C0
:100FD0002000A0009030A1008E31BE2687310C3059
:100FE0008E3115268731080023008F0108309000CC
:100FF000910103308D009012080021003E1408007A
:101C0600080008008E3134268E3108007308210042
:101C1600E8007208E7000800640080010131890BC2
:101C2600102E0034F900F40179088231BB228E317E
:101C36000800F900F401F40A79088231BB228E31DA
:101C46000800623031008D008F01910193019201ED
:101C560008002F0096019701980199019A019B01AE
:101C66000800803023008F00083090009101033077
:101C76008D00901620009315131608008E315F26EE
:101C86008E318B170B172100BD013E10BF01C0011D
:101C9600C101C201C301080001302100CC07053093
:101CA6004C02031C572E582E5E2ECC0180313C2050
:101CB6008E312100CD0008008E312C268E318731E1
:101CC600F4278E31863143268E318E3124268E318D
:101CD6008F3169278E31080024000E1D732E742E55
:101CE6007B2E0E1071088D0070088C000E147F2E4E
:101CF60071088D0070088C000800F91B832E842E55
:101D0600852E912E78092000A0007909A100A00A4D
:101D16000319A10A2008F8002108F900080020008C
:101D2600A10021080319982E992E9C2EC030A200DE
:101D36009E2E8030A20020080F392204A20022081D
:101D46008E3115268E3108002E001010210049080C
:101D5600F1004808F0008E316F268E3121006708A9
:101D660068040319B72EB82EBD2E68088A006708C6
:101D76000A008E310800C32E24088E311C268E31AF
:101D860020002108A3002008A200A00A0319A10A26
:101D960022088400230885000008A4002408031DE7
:101DA600D52ED62EBF2E08000F3023001005F200C8
:101DB600083072060319E02EE12EEA2E0F301005C8
:101DC600F2000B307206031DE92EEA2EEB2E91155A
:101DD6000F1CEE2EEF2EEB2E0C0808000130210012
:101DE600C1073C304102031CF92EFA2EFD2EC1011B
:101DF6000130C0073C304002031C022F032F062F80
:101E0600C0010130BF0718303F02031C0B2F0C2FF7
:101E16000D2FBF01080020005108D5005008D4003E
:101E26001F2F4F08C0004E08BF005430C100520893
:101E3600C200813145218F312000540884005508A5
:101E460085001200031D282F292F142FCE01CF0144
:101E5600080059302000DF005608E000E101E201E9
:101E6600E301E901EA016030CE000030CF005808F6
:101E7600D1005708D0005F30D2008F310E278F3146
:101E86002000560862078600870181010800F601D6
:101E9600F701721C4F2F502F542F7408F607750840
:101EA600F73D0130F435F50D890B552F0130F3362A
:101EB600F20C890B5A2F72087304031D632F642FCB
:101EC6004C2F7708F3007608F200080024008F01F3
:101ED600900101309100E1308D007B308C002E00A6
:101EE600101024000D082100C90024000C08210050
:101EF600C8002E001A14FD30F2000730F3008E31B0
:101F060009268F31313024008E0008008E3141269B
:101F16008F318F31CE278F318E3105268F312100BB
:101F26003E1C962F972F9E2F3E108E31F1268F3115
:101F36008E314F268F31873158278F318E310326C8
:101F46008F31873196278F31922F80311C282000C0
:101F5600A901AA01C12F2808F600F7017608F200A8
:101F66007708F3002708F5002608F40085310225D6
:101F76008F3101302000A9070030AA3D2508290726
:101F86008600013087000108A8002808031DCC2F11
:101F9600CD2FAE2F08008E3134268F3183316C233E
:101FA6008F3182302000A500DD30890BD82FA50B9C
:101FB600D82F003201308E3115268F312000A00136
:101FC60000308E3192268F314D302000A0009030A7
:101FD600A1008E31BE268F3104302000A6008E303F
:101FE600A5001230890BF52FA50BF52FA60BF52FA3
:101FF60000008731CF278F310800003400340034C9
:10200600003400340034003400340034003400342A
:10201600003400340034003400340034003400341A
:10202600003400340034003400340034003400340A
:102036000034003400340034003425343034323473
:1020460064343A3425343034323464343A34253402
:102056003034323464342034203420344134003473
:10206600253430343234643420342034433420343C
:102076004C342034203430340034303430343A3464
:10208600303430343A343034303420342034203450
:10209600413400344C346F346134643469346E3402
:1020A60067342E342E342E34003430343034203419
:0420B600433400347B
:020000040001F9
:0A000E00EC3FFF3F9F3FFF3FFF3F25
:00000001FF
