:1000000080311C28013401347E1480310030860098
:10001000003087000B1F0D280E281A282E001A1CEE
:10002000122813281A28101C162817281A288F316E
:10003000D02780317E10090080311E2821008031B8
:1000400002208031E600803103208031E700FA0190
:10005000FB01A0308400003085002D308F31542703
:100060008031203084000130850020308F315427CA
:1000700080317E1020008731732F200041088600D8
:100080008701403FC300413FC40043088400440847
:1000900085001200253A031D4E284F28E628410806
:1000A000860087010130810741310318810A210050
:1000B000C401C5010030FA00FF30C600FF30C700A0
:1000C0002000CB018028FA14410886008701013006
:1000D000810741310318810A80280130CB00802834
:1000E000410886008701403FC300413FC4004308E8
:1000F0008400440885000008303A031963286D28FD
:100100004B0803198428852870284108F800420804
:10011000F9008231E022803179082100C500780899
:10012000C400C51F942895289B287A14C409C509C2
:10013000C40A0319C50A2000410886008701403F10
:10014000CC00413FCD004C0884004D0885001200D2
:10015000643A0319AC28AD28B7284C0884004D0830
:1001600085001200693A031DB628B728DC2842082A
:100170008600870101088400850102308107003F65
:10018000C700013FC8004C08013EC30000304D3D90
:10019000C4004108860087014308C03F4408C13FAE
:1001A0004008B3003F08B2004808B5004708B40053
:1001B000813101218031002920004108860087011A
:1001C0000130810741310318810A00294108860066
:1001D0008701403FC300413FC400430884004408F6
:1001E00085000008C500C6014508F2004608F30076
:1001F0004008F5003F08F400833197238031DC2864
:10020000080001302000B900B51B07290929013079
:100210000A290030BC00210045082000BB00210055
:1002200044082000BA003C080319172918292C2972
:10023000FF30BA07FF30BB3D3C08031D20292129B0
:1002400026292B30B7000030B8002A292D30B700FE
:100250000030B8003708BC001F30BD000030BE00C1
:100260002200BF016829FF302000BD07FF30BE3DDE
:100270003D08203E8600013087000A30F200003041
:10028000F3003508F5003408F4008331F0238131A0
:100290007308F9007208F8008F31BE2781317808A1
:1002A000303E81002000B901FF30BA07FF30BB3D6E
:1002B0000A30F2000030F3003508F5003408F4008D
:1002C00083313C23813173082000B5007208B400EB
:1002D00020003E08803AB60080303602031D7229A5
:1002E00001303D02031C752976299329200034082A
:1002F0003504031D7C297D2933293908031D8129F3
:10030000822933293B08803AB60080303602031D2B
:100310008B2901303A02031C8E298F299329FA1860
:1003200092299329332920003C08031998299929F7
:10033000A429FF30BD07FF30BE3D3D08203E8600AA
:10034000013087003C0881003308AC003208AB0064
:100350003D08203EAD003B08AF003A08AE008531B5
:10036000212581310800F6007608F039F70076087B
:10037000F5000430F535890BBA297508F039F80015
:1003800023000F0C890C0139F50011081F39750481
:10039000031DCB29CC29C02911141118D029D1292A
:1003A000CD290F0C890C0139F50011081F3975048E
:1003B000031DDB29DC29D1294E3084318F24813182
:1003C00023000F0C890C0139F50011081F39750441
:1003D000031DEB29EC29E0297708740408388431DF
:1003E0008F24813123000F0C890C0139F50011088D
:1003F0001F397504031DFD29FE29F22977087404AD
:100400000C3884318F24813123000F0C890C013981
:10041000F50011081F397504031D0F2A102A042A3C
:10042000000077087404083884318F248131230058
:100430000F0C890C0139F50011081F397504031DD3
:10044000222A232A172A78087404083884318F2432
:10045000813123000F0C890C0139F50011081F3977
:100460007504031D342A352A292A780874040C38A7
:1004700084318F24813123000F0C890C0139F50060
:1004800011081F397504031D462A472A3B2A00001C
:1004900078087404083884318F24813123000F0CCC
:1004A000890C0139F50011081F397504031D592AFB
:1004B0005A2A4E2A111511195E2A5F2A5B2A10301A
:1004C000890B602A003208004130F900EE30890BB8
:1004D000672AF90B672A003230308531672582316F
:1004E0003430853167258231A630890B752A003278
:1004F00030308531672582310730F9007D30890B36
:100500007F2AF90B7F2A0000303085316725823140
:100510003430853167258231A630890B8D2A00322F
:1005200030308531672582312130890B952A0000D2
:10053000303085316725823134308531672582310D
:10054000A630890BA12A00323030853167258231EF
:100550002130890BA92A000020308531672582319E
:100560002430853167258231A630890BB52A0032C7
:1005700020308531672582310730F9007D30890BC5
:10058000BF2AF90BBF2A0000F40128308131B321C2
:100590008231F40106308131B3218231F4010F3010
:1005A0008131B3218231F40101308131B3218231B3
:1005B0000330F9009830890BDB2AF90BDB2A08009D
:1005C0002000A401A501780886008701403FA00013
:1005D000413FA100200884002108850012002A3A2A
:1005E000031DF32AF42A232B7808860087010130A3
:1005F000810741310318810A7908860087010108C3
:100600008400850102308107003FA400013FA5005E
:10061000372B2508F3002408F2000A30F4000030DC
:10062000F500873154278231200023087207A40087
:100630000030733DA50078088600870101308107EE
:1006400041310318810A780886008701403FA000E5
:10065000413FA10020088400210885000008D03E09
:10066000A3000A302302031C362B372B092B250845
:10067000F9002408F8000800F701F31F402B412B74
:10068000482BF209F309F20A0319F30A0130F700C3
:10069000F51F4B2B4C2B532BF409F509F40A0319C6
:1006A000F50A0130F706F801F9017208730403191D
:1006B0005A2B5B2B882B0130F600652B0130F2356D
:1006C000F30D890B5F2B0130F607F31F682B692BA5
:1006D0005E2B0130F835F90D890B6A2B7308750212
:1006E000031D742B72087402031C772B782B7D2B4F
:1006F0007208F4027308F53B78140130F336F20CFB
:10070000890B7E2B0130F602031D872B882B692B6A
:10071000770803198C2B8D2B922BF809F909F80A0D
:100720000319F90A7908F3007808F2000800740840
:10073000750403199C2B9D2BA32B74087504031DB2
:10074000A22BA32BA82B72088731FF278331EF2B15
:100750007408860087014931160001040319B12B82
:10076000B22BD12B7408860087014931403F20000D
:10077000A000413FA1007408860087014231403F3C
:10078000A200413FA3002308803AA4002108803A38
:100790002402031DCD2B200822020318D02BD12BBD
:1007A000EF2B7408860087014231740884007508B5
:1007B0008500003F2000A000013FA100403F20072E
:1007C0008400413F213D8500720880007408860046
:1007D000870142310130810741310318810A080045
:1007E000F701F51FF42BF52BFC2BF409F509F40A9E
:1007F0000319F50A0130F700F31FFF2B002C052C1D
:10080000F209F309F20A0319F30A720873040319CF
:100810000A2C0B2C322C0130F600152C0130F2354D
:10082000F30D890B0F2C0130F607F31F182C192C30
:100830000E2C73087502031D1F2C72087402031C12
:10084000222C232C272C7208F4027308F53B01306C
:10085000F336F20C890B282C0130F602031D312CE3
:10086000322C192C77080319362C372C3C2CF40920
:10087000F509F40A0319F50A7508F3007408F20083
:1008800008007B2C1830F2000030F30021003F08F4
:10089000013EF400003003180130F5008331F023ED
:1008A000843172082100BF008E2C3C30F2000030F1
:1008B000F30021004008013EF4000030031801302D
:1008C000F5008331F023843172082100C0008E2CA2
:1008D0003C30F2000030F30021004108013EF400FA
:1008E000003003180130F5008331F02384317208A1
:1008F0002100C1008E2C7B08F800F9017908003A2C
:100900000319832C8E2C7808013A0319422C033AE0
:100910000319552C013A0319682C8E2C0800F3009A
:10092000730823008C00901F962C972C982CD92CA0
:100930000F301005F200083072060319A02CA12C0C
:10094000B72C0F301005F2000B3072060319A92CDA
:10095000AA2CB72C10162E000F1CAF2CB02CAB2CD1
:1009600023000F19B42CB52CD92C0F08D92C0F301B
:100970001005F200083072060319BF2CC02CC92CD8
:100980000F301005F2000B307206031DC82CC92C65
:10099000D92C0F18CC2CCD2CC92C0F0C890C01395B
:1009A000F20011081F397204031DD72CD82CCD2C4E
:1009B0001108080020009A019901960197019801F9
:1009C000073095000F309100FF309200FF30930008
:1009D000FF309400FF303E00D900C730CE00EF302A
:1009E000C3000730E4000F30B800DA01E501103031
:1009F000C400B9012030CF00E601BA01C501D00121
:100A0000DB01FF30BB00FF30C600FF30D100FF30FC
:100A1000DC000730E700FF30BC00FF30C700FF30CC
:100A2000D200FF30DD000730E80013303D00C50084
:100A300014303E00A3001530A40014303D00C60061
:100A400008007A1C242D252D2F2D20002D08A5000F
:100A50002C08A7002B08A6008631F026853120003F
:100A6000AF1F332D342D362DAE01AF01B001B101D2
:100A70004A2D2030F2000030F30020002C08F50051
:100A80002B08F40083319723853101302000B00713
:100A90000030B13D3108803AF8002F08803A7802E2
:100AA000031D542D2E083002031C572D582D392DAF
:100AB0007A185B2D5C2D662D20002D08A5002C08D2
:100AC000A7002B08A6008631F02685310800F50026
:100AD00023000F0C890C0139F40011081F3974042C
:100AE000031D732D742D682D11141118782D792D77
:100AF000752D0F0C890C0139F40011081F3974048D
:100B0000031D832D842D792D4E3084318F24853122
:100B100023000F0C890C0139F40011081F397404EB
:100B2000031D932D942D882D750884318F248531D4
:100B300023000F0C890C0139F40011081F397404CB
:100B4000031DA32DA42D982D11151119A82DA92D24
:100B5000A52D080020000D0E0139A7000E0E890CEE
:100B60000139A80021006703031DB72DB82DC12D41
:100B700020002708031DBD2DBE2DC12D8531EC257C
:100B80008531200027080319C62DC82D0130C92D35
:100B900000302100CC006603031DCF2DD02DD92DB0
:100BA00020002808031DD52DD62DD92D84314124B0
:100BB0008531200028080319DE2DE02D0130E12DBC
:100BC00000302100CB00200027082100E700200092
:100BD00028082100E6000800112E0130FB000F302C
:100BE0008F315A2785312000A00100308731EA2754
:100BF0008531282E0230FB000330A0000030873101
:100C0000EA278531282E0330FB000630A000003093
:100C10008731EA278531282EFB018631CB268531A5
:100C2000282E7B082000A500A6012608003A0319FB
:100C30001A2E0C2E2508003A0319ED2D013A03193E
:100C4000FA2D033A0319032E013A03190C2E0C2E28
:100C50000800D3302000D6000030D7009030D800F4
:100C600021003F08CD00CE014D082000D900210011
:100C70004E082000DA0021004008CF00D0014F08C4
:100C80002000DB00210050082000DC00210041088A
:100C9000D100D20151082000DD00210052082000BF
:100CA000DE008731912786312000A0010030873196
:100CB000EA278631D3302000A0000030A1008F3118
:100CC000E727863108007B08031D672E682E6C2EEF
:100CD000863129268631982E863129268631842E22
:100CE000A00100308731EA278631982E0330A0001A
:100CF00000308731EA278631982E0630A000003078
:100D00008731EA278631982E7B082000EB00EC0122
:100D10006C08003A03198D2E982E6B08013A0319BE
:100D2000702E033A0319762E013A03197D2E982E60
:100D300008008F31822786318231642286318230E9
:100D40002000A500DD30890BA32EA50BA32E0032B9
:100D500001308F315A2786312000A00100308731C1
:100D6000EA27863120302000A0009030A1008F318A
:100D7000E727863104302000A6008E30A50012300F
:100D8000890BC02EA50BC02EA60BC02E00008631ED
:100D9000CB268631080001308F315A27863120005A
:100DA000A00100308731EA27863113302000A000EF
:100DB0009030A1008F31E72786312000A00101305B
:100DC0008731EA2786312B302000A0009030A10027
:100DD0008F31E72786310C308F315A278631080052
:100DE0002000A901AA01072F2808F600F7017608BC
:100DF000F2007708F3002708F5002608F400833195
:100E00009723863101302000A9070030AA3D25082C
:100E100029078600013087000108A8002808031D63
:100E2000122F132FF42E0800003400340034003445
:100E30000034003400340034003400340034003412
:100E40000034003400340034003400340034003402
:100E500000340034003400340034003400340034F2
:100E6000003400340034003424008F01900101303C
:100E70009100E1308D007B308C002E00101024009A
:100E80000D082100C90024000C082100C8002E0014
:100E90001A144B30F2000F30F3008F314E27873198
:100EA000313024008E000800F601F701721C592F22
:100EB0005A2F5E2F7408F6077508F73D0130F43598
:100EC000F50D890B5F2F0130F336F20C890B642F7F
:100ED00072087304031D6D2F6E2F562F7708F300D1
:100EE0007608F20008008F318F27873186319926E6
:100EF000873121003E1C7D2F7E2F822F3E108731AF
:100F0000CD2787318531AA2587318F314A2787310F
:100F10008F3149278731863163268731792F803198
:100F20001C2859302000DF005608E000E101E201F2
:100F3000E301E901EA016030CE000030CF0058083B
:100F4000D1005708D0005F30D2008731AF278731FA
:100F500020005608620786008701810108002000F2
:100F60005108D5005008D400C02F4F08C0004E08CB
:100F7000BF005430C1005208C20080313D2087318B
:100F8000200054088400550885001200031DC92F55
:100F9000CA2FB52FCE01CF01080001302100C107B3
:100FA0003C304102031CD52FD62FD92FC10101306F
:100FB000C0073C304002031CDE2FDF2FE22FC001B0
:100FC0000130BF0718303F02031CE72FE82FE92F3D
:100FD000BF0108002000A10021080319F02FF12F04
:100FE000F42FC030A200F62F8030A20020080F3965
:100FF0002204A20022088F315A27873108000800F6
:101E92000800080021003E14080073082100E50034
:101EA2007208E4000800640080010131890B552F9B
:101EB2000034F900F40179088131B3218F3108002F
:101EC200F900F401F40A79088131B3218F31080055
:101ED200623031008D008F0191019301920108005F
:101EE2002F0096019701980199019A019B01080020
:101EF20023008F0108309000910103308D00901271
:101F02000800803023008F000830900091010330D8
:101F12008D00901620009315131608008F319D270F
:101F22008F318B170B172100BD013E10BF01C0017D
:101F3200C101C201C30108008F3171278F318F3176
:101F420079278F318431DA248F318F3169278F31AC
:101F5200873134278F31080024000E1DB12FB22F94
:101F6200B92F0E1071088D0070088C000E14BD2F51
:101F720071088D0070088C000800F91BC12FC22F58
:101F8200C32FCF2F78092000A0007909A100A00A51
:101F92000319A10A2008F8002108F90008002E0000
:101FA200101021004908F1004808F0008F31AD27D8
:101FB2008F312100640865040319E02FE12FE62F19
:101FC20065088A0064080A008F310800EC2F240893
:101FD2008F3161278F3120002108A3002008A20041
:101FE200A00A0319A10A2208840023088500000818
:101FF200A4002408031DFE2FFF2FE82F080025341C
:102002003034323464343A34253430343234643443
:102012003A34253430343234643420342034203499
:1020220041340034303430343A34303430343A3499
:1020320030343034203420342034413400344C34B1
:102042006F346134643469346E3467342E342E3420
:102052002E340034303430342034203443342034AD
:0A2062004C342034203430340034B4
:020000040001F9
:0A000E00EC3FFF3F9F3FFF3FFF3F25
:00000001FF
