:0400000080311C2807
:1000060008007E14803100308600003087000B1F08
:100016000D280E281A282E001A1C122813281A2812
:10002600101C162817281A289331422380317E1077
:10003600090080311E283030840092308500E93076
:10004600860000308700033092314D2280313C30EB
:1000560084009230850069308600013087000530C3
:1000660092314D2280313730840092308500CA307B
:10007600860001308700053092314D228031FA0129
:10008600FB01D930840000308500103092314722C0
:10009600803120308400013085004930923147227A
:1000A6008031A0308400013085002A309231472209
:1000B60080317E1020009531022D2400B1003108D8
:1000C60021006906031968286928712801309231D0
:1000D60053228031240031082100E9002400310830
:1000E600031D7628772848299231B2228031723052
:1000F60086000030870032308400023085000530EB
:100106002100AC0016001A00AC0B85289231C122E2
:10011600803172308600003087003730840002302C
:10012600850005302100AC0016001A00AC0B97289C
:100136002000A001003093311823803120302000A8
:10014600D8000230D9003A30DA009830DB002400BB
:1001560032082100AC00AD012C082000DC00210093
:100166002D082000DD00240033082100AE00AF0179
:100176002E082000DE0021002F082000DF002400CA
:1001860034082100B000B10130082000E000210051
:1001960031082000E100240035082100B200B30137
:1001A60032082000E200210033082000E30024008A
:1001B60036082100B400B50134082000E40021000F
:1001C60035082000E5009431A62480312030200037
:1001D600A0000230A1009331702380312000A001DD
:1001E600013093311823803120302000D8000230AE
:1001F600D9003A30DA009830DB00240037082100B5
:10020600AC00AD012C082000DC0021002D082000E8
:10021600DD00240038082100AE00AF012E082000C2
:10022600DE0021002F082000DF002400390821000D
:10023600B000B10130082000E000210031082000A4
:10024600E10024003A082100B200B3013208200080
:10025600E200210033082000E30024003B082100CF
:10026600B400B50134082000E40021003508200060
:10027600E5009431A624803120302000A000023011
:10028600A100933170238031112A9231942280315A
:1002960072308600003087003C30840002308500D2
:1002A60005302100AC0016001A00AC0B562992311D
:1002B600A3228031723086000030870041308400EE
:1002C6000230850005302100AC0016001A00AC0B88
:1002D60068292000A0010030933118238031203096
:1002E6002000D8000230D9003A30DA009830DB001E
:1002F60024003C082100AC00AD012C082000DC00E5
:1003060021002D082000DD0024003D082100AE005C
:10031600AF012E082000DE0021002F082000DF009C
:1003260024003E082100B000B10130082000E000A2
:10033600210031082000E10024003F082100B2001E
:10034600B30132082000E200210033082000E30058
:10035600240040082100B400B50134082000E40060
:10036600210035082000E5009431A6248031203094
:100376002000A0000230A1009331702380312000BC
:10038600A001013093311823803120302000D8009D
:100396000230D9003A30DA009830DB0024004108F8
:1003A6002100AC00AD012C082000DC0021002D0846
:1003B6002000DD00240042082100AE00AF012E0817
:1003C6002000DE0021002F082000DF002400430863
:1003D6002100B000B10130082000E0002100310802
:1003E6002000E100240044082100B200B3013208D5
:1003F6002000E200210033082000E3002400450825
:100406002100B400B50134082000E40021003508BD
:100416002000E5009431A62480313F2908002200FF
:100426004A08031D172A182A1E2A20302100CF0049
:100436000030D000232A43302100CF000030D00006
:100446004F08CB0022004B08031D2A2A2B2A312AEB
:1004560020302100D1000030D200362A543021004D
:10046600D1000030D2005108CC0022004C08031DF8
:100476003D2A3E2A442A20302100D3000030D400F1
:10048600492A4C302100D3000030D4005308CD0057
:1004960022004408031D502A512A572A61302100A0
:1004A600D5000030D6005C2A41302100D50000304E
:1004B600D6005508CE00BA302000D8000030D9004A
:1004C6002030DA009830DB0022003F082100AC0023
:1004D600AD012C082000DC0021002D082000DD00E5
:1004E600220040082100AE00AF012E082000DE00E9
:1004F60021002F082000DF00220041082100B00063
:10050600B10130082000E000210031082000E100A0
:1005160021004B08B200B30132082000E20021009E
:1005260033082000E30021004C08B400B50134086C
:100536002000E400210035082000E50021004D08D8
:10054600B600B70136082000E60021003708200073
:10055600E70021004E08B800B90138082000E8007D
:10056600210039082000E9009431A62482312000B8
:10057600A0010030933118238231BA302000A00048
:100586000030A1009331702382312000A001013098
:100596009331182382318C2BBA302000D8000030DA
:1005A600D900D630DA009830DB0021006808AC00AC
:1005B600AD012C082000DC0021002D082000DD0004
:1005C60021006708AE00AF012E082000DE002100E2
:1005D6002F082000DF009431A6248231B22BBA30D6
:1005E6002000D8000030D900B230DA009830DB00A5
:1005F6009431A6248231B22BBA302000D8000030C4
:10060600D9005330DA009830DB002200450821007B
:10061600AC00AD012C082000DC0021002D082000D4
:10062600DD00220046082100AE00AF012E082000A2
:10063600DE0021002F082000DF00220047082100ED
:10064600B000B10130082000E00021003108200090
:10065600E1009431A6248231B22BBA302000D800B2
:100666000030D9006830DA009830DB0022004808F4
:100676002000DC00DD01DC1BDD039431A624823181
:10068600B22BBA302000D8000030D9007B30DA0017
:100696009830DB00220049082100AC00AD012C088F
:1006A6002000DC0021002D082000DD009431A62466
:1006B6008231B22B22004408031D622B632B692B67
:1006C600A0302100D7009830D8006E2B8E30210044
:1006D600D7009830D800BA302000D8000030D900B2
:1006E600210058082000DB00210057082000DA000E
:1006F6009431A6248231B22BBA302000D8000030C3
:10070600D900C430DA009830DB009431A624823157
:10071600B22B21006208AC00AD012D08003A031986
:10072600952BB22B2C08003A0319CF2A013A03194C
:10073600F22A033A0319F22A013A0319F22A073A6E
:100746000319FF2A013A0319302B033A0319442BE4
:10075600013A03195D2B0F3A03197F2BB22BBA30DE
:100766002000A0000030A1009331702382310800E0
:100776002000410886008701403FC400413FC50074
:1007860044088400450885001200253A031DCC2B39
:10079600CD2B362D41088600870101308107413176
:1007A6000318810A2100DB01DC010030FA00FF306A
:1007B600DD00FF30DE002000C901FE2BFA144108DF
:1007C600860087010130810741310318810AFE2B1B
:1007D6000130C900FE2B410886008701403FC40056
:1007E600413FC50044088400450885000008303AAA
:1007F6000319E12BEB2B49080319022C032CEE2BD2
:100806004108F8004208F9008831EA208331790866
:100816002100DC007808DB00DC1F122C132C192CBD
:100826007A14DB09DC09DB0A0319DC0A200041081B
:1008360086008701403FC400413FC500440884004C
:10084600450885001200633A031D2A2C2B2C4D2CDB
:100856004108860087010130810741310318810A6A
:10086600420886004308870001088400850102309B
:1008760081070008C8004008A6003F08A5004808F0
:10088600A70089314621833120002608C0002508AB
:10089600BF00592D410886008701403FCE00413FE9
:1008A600CF004E0884004F0885001200643A0319F1
:1008B6005D2C5E2C682C4E0884004F0885001200C3
:1008C600693A031D672C682C932C4208860043085E
:1008D600870001088400850102308107003FCA00B5
:1008E600013FCB004E08013EC40000304F3DC5001D
:1008F6004108860087014408C03F4508C13F4008BB
:10090600B3003F08B2004B08B5004A08B4008C316A
:10091600E424833120003308C0003208BF00592D7B
:100926004E0884004F0885001200753A031D9C2C62
:100936009D2CD22C420886004308870001088400BB
:10094600850102308107003FCA00013FCB004E08F7
:10095600013EC40000304F3DC500410886008701B6
:100966004408C03F4508C13FC92C4008B3003F08B2
:10097600B2004B08B5004A08B4008931B52183316D
:1009860020003308C0003208BF00592D4E088400ED
:100996004F0885000008753A0319B82CD22C4E086A
:1009A60084004F08850012006E3A031DDB2CDC2CF8
:1009B600032D42088600430887000108840085014C
:1009C60002308107003FC400013FC500440886008D
:1009D6004508870021005908C03F5A08C13F20003A
:1009E6004E08013EC40000304F3DC5004108860058
:1009F60087014408C03F4508C13FBF01C001592DCA
:100A0600410886008701403FC400413FC5004408B5
:100A16008400450885001200253A031D132D142D68
:100A26002D2D4108860087010130810741310318C9
:100A3600810A2530F2000030F3004008F5003F0837
:100A4600F40088313620833101302000BF000030A9
:100A5600C000592D410886008701013081074131C8
:100A66000318810A002D410886008701403FC40013
:100A7600413FC50044088400450885000008C600BB
:100A8600C7014608F2004708F3004008F5003F0892
:100A9600F400883136208331200041088600870122
:100AA6000130810741310318810A272D08002200F1
:100AB600CF01083021006206031D622D632D882DAB
:100AC6009231332285310130923153228531200013
:100AD600A0010030933118238531EE302000A000AC
:100AE6009830A100933170238531C3302000B900BE
:100AF600CD30890B7C2DB90B7C2D2100E201220023
:100B0600BD01923172228531712E023022003D06DE
:100B1600031D8E2D8F2D9E2D21006108031D942D02
:100B2600952D982D0130E100712EE1012200BD01C5
:100B36002100E201842D21006208031DA32DA42DAE
:100B4600502E22003D08031DA92DAA2D502E02303D
:100B5600BD002100E101842D1830F2000030F300C1
:100B660022003F08013EF400003003180130F50072
:100B760097315C27853172082200BF00712E3C3008
:100B8600F2000030F30022004008013EF40000307D
:100B960003180130F50097315C2785317208220071
:100BA600C000712E3C30F2000030F30022004108F4
:100BB600013EF400003003180130F50097315C2740
:100BC600853172082200C100712E7B08031DEC2DB1
:100BD600ED2D002E1830F2000030F30022004508FB
:100BE600013EF400003003180130F50097315C2710
:100BF600853172082200C500712E7B03031D042E69
:100C0600052E182E3C30F2000030F3002200460874
:100C1600013EF400003003180130F50097315C27DF
:100C2600853172082200C600712E02307B06031D34
:100C36001D2E1E2E712E3C30F2000030F3002200D5
:100C46004708013EF400003003180130F5009731E3
:100C56005C27853172082200C700712E3330F200FE
:100C66000030F300013022004807F400F5010318B4
:100C7600F50AC81F3F2EF50397315C2785317208A8
:100C86002200C800712E22004908013E0339C9001E
:100C9600712E01302200C406712E21006208200048
:100CA600B900BA013A08003A03195A2E712E3908CA
:100CB600013A0319AF2D033A0319C22D013A03195C
:100CC600D52D073A0319E82D013A0319312E033AB7
:100CD6000319462E013A03194C2E712E08002300E3
:100CE6000F0C890C0139F40011081F397404031D17
:100CF6007D2E7E2E722E11141118822E832E7F2E9B
:100D06000F0C890C0139F40011081F397404031DF6
:100D16008D2E8E2E832E9A309631C4268631230050
:100D26000F0C890C0139F40011081F397404031DD6
:100D36009D2E9E2E922E01309631C426863123009A
:100D46000F0C890C0139F40011081F397404031DB6
:100D5600AD2EAE2EA22E91149118B22EB32EAF2E1A
:100D66000F0C890C0139F40011081F397404031D96
:100D7600BD2EBE2EB32E9B309631C426863123005F
:100D86000F0C890C0139F40011081F397404031D76
:100D9600CD2ECE2EC22E933189238631F500230027
:100DA6000F0C890C0139F40011081F397404031D56
:100DB600DD2EDE2ED22E91161116111AE32EE42EFA
:100DC600E02E0F0C890C0139F40011081F39740448
:100DD600031DEE2EEF2EE42E11151119F32EF42E0F
:100DE600F02E751FF72EF82E722E0F0C890C013976
:100DF600F40011081F397404031D022F032FF82E67
:100E060011141118072F082F042F0F0C890C013904
:100E1600F40011081F397404031D122F132F082F15
:100E26009A309631C426863123000F0C890C01397D
:100E3600F40011081F397404031D222F232F172FC6
:100E460000309631C426863123000F0C890C0139F7
:100E5600F40011081F397404031D322F332F272F76
:100E660091149118372F382F342F0F0C890C013914
:100E7600F40011081F397404031D422F432F382F25
:100E86009B309631C426863123000F0C890C01391C
:100E9600F40011081F397404031D522F532F472FD6
:100EA600933189238631F50023000F0C890C013913
:100EB600F40011081F397404031D622F632F572F86
:100EC60091161116111A682F692F652F0F0C890CB0
:100ED6000139F40011081F397404031D732F742F90
:100EE600692F11151119782F792F752F750808009C
:100EF6004130F900EE30890B7E2FF90B7E2F003240
:100F0600303096313A268731343096313A26873159
:100F1600A630890B8C2F0032303096313A26873135
:100F26000730F9007D30890B962FF90B962F0000BC
:100F3600303096313A268731343096313A26873129
:100F4600A630890BA42F0032303096313A268731ED
:100F56002130890BAC2F0000303096313A2687318C
:100F6600343096313A268731A630890BB82F0032B5
:100F7600303096313A2687312130890BC02F000058
:100F8600203096313A268731243096313A268731F9
:100F9600A630890BCC2F0032203096313A26873185
:100FA6000730F9007D30890BD62FF90BD62F0000BC
:100FB600F40128308C3133248731F40106308C312A
:100FC60033248731F4010F308C3133248731F40117
:100FD60001308C31332487310330F9009830890B86
:100FE600F22FF90BF22F080023008F010830900032
:100FF600910103308D0090120800923187228831CA
:10100600080072087304031909280A2831280130D8
:10101600F60014280130F235F30D890B0E28013045
:10102600F607F31F172818280D2873087502031DE5
:101036001E2872087402031C2128222826287208FA
:10104600F4027308F53B0130F336F20C890B2728BE
:101056000130F602031D3028312818287508F300E0
:101066007408F20008007408750403193B283C282C
:10107600422874087504031D41284228472872082F
:101086008031032088318E28740886008701493113
:101096001600010403195028512870287408860088
:1010A60087014931403F2000A000413FA10074085C
:1010B600860087014231403FA200413FA30023083A
:1010C600803AA4002108803A2402031D6C282008D7
:1010D600220203186F2870288E287408860087015C
:1010E60042317408840075088500003F2000A00086
:1010F600013FA100403F20078400413F213D85007C
:101106007208800074088600870142310130810729
:1011160041310318810A0800F701F31F9328942828
:101126009B28F209F309F20A0319F30A0130F700C2
:10113600F51F9E289F28A628F409F509F40A031925
:10114600F50A0130F706F801F9017208730403196C
:10115600AD28AE28DB280130F600B8280130F2357C
:10116600F30D890BB2280130F607F31FBB28BC2804
:10117600B1280130F835F90D890BBD2873087502C1
:10118600031DC72872087402031CCA28CB28D0285E
:101196007208F4027308F53B78140130F336F20C4A
:1011A600890BD1280130F602031DDA28DB28BC287A
:1011B60077080319DF28E028E528F809F909F80A6D
:1011C6000319F90A7908F3007808F20008002000EC
:1011D600A401A501780886008701403FA000413F91
:1011E600A100200884002108850012002A3A031D68
:1011F600FD28FE282D297808860087010130810701
:1012060041310318810A79088600870101088400A4
:10121600850102308107003FA400013FA500412956
:101226002508F3002408F2000A30F4000030F50027
:10123600943119248831200023087207A400003055
:10124600733DA5007808860087010130810741318A
:101256000318810A780886008701403FA000413FB5
:10126600A10020088400210885000008D03EA300C4
:101276000A302302031C4029412913292508F900B5
:101286002408F800080021005B085C04031D4C29B3
:101296004D2955295C082000AB0021005B08200081
:1012A600AA005E295B08FF3E2000AA00FF3021004D
:1012B6005C3D2000AB007A1C612962297029270851
:1012C600F600F7017608F2007708F3002608F50025
:1012D6002508F4008831362089312000AB1B74299B
:1012E600752976297829AA01AB01A801A9018C29BB
:1012F6002030F2000030F30020002608F500250813
:10130600F40088313620893101302000A8070030EA
:10131600A93D2908803AF6002B08803A7602031D7B
:1013260096292A082802031C99299A297B297A18C2
:101336009D299E29AD2920002708F600F701760889
:10134600F2007708F3002608F5002508F400883136
:101356003620893120002808013EA5000030293DAD
:10136600A600080001302000B60021005C0820001D
:10137600B80021005B082000B7001F30B90000301C
:10138600BA002300C901F529FF302000B907FF3054
:10139600BA3D3908AA3E8600013087000A30F200BD
:1013A6000030F3003508F5003408F40088310420D5
:1013B60089317208303E81002000B601FF30B70740
:1013C600FF30B83D0A30F2000030F3003508F50072
:1013D6003408F40095313B25893173082000B500A7
:1013E6007208B400200039083A040319FB29FC29C5
:1013F600182A34083504031D012A022AC72936088B
:10140600031D062A072AC7293808803AF9008030C2
:101416007902031D102A01303702031C132A142AED
:10142600182AFA18172A182AC72920003308AC00E8
:101436003208AB003908AA3EAD003808AF003708BD
:10144600AE009731AD27893120002C08B3002B0858
:10145600B200080022004108210066060319342A5A
:10146600352A572A220041082100E6002000160DE1
:10147600160D0139F2000130F206F20CF20C1608D4
:1014860072067F397206960022004E0803194C2A0E
:101496004D2A572A0130CE024E08031D532A542ADC
:1014A600572ACD012000161322004408031D5C2A8A
:1014B6005D2A682A20009612161216132200CA0107
:1014C600CB01CC01CD01CE01D82A4808F200F301A8
:1014D600F21BF3037308803AF40080307402031D94
:1014E600772A210068087202031C7A2A7C2A0130B6
:1014F6007D2A0030F6002200490821006702031CFD
:10150600852A872A0130882A0030F700760C2000C9
:10151600031C961203189616770C031C1612031852
:101526001616F50122004A08031D9A2A9B2AB12A9B
:101536003F084506031DA02AA12AB12A40084606EF
:10154600031DA62AA72AB12A41084706031DAC2A6D
:10155600AD2AB12A0130CA000130F5007608031918
:10156600B52AB62ABF2A4B08031DBA2ABB2ABF2AA8
:101576000130CB000130F50077080319C32AC42ACD
:10158600CD2A4C08031DC82AC92ACD2A0130CC0011
:101596000130F50075080319D12AD22AD82A01305C
:1015A600CD000330CE002000161708005E2B013058
:1015B6002100E2000F30923153228A312000A0012F
:1015C600A00A0030933118238A31852B023021007E
:1015D600E20004302000A0000030933118238A3145
:1015E600852B03302100E20007302000A0000030E8
:1015F600933118238A31852B04302100E200FB0148
:1016060004302000A0000130933118238A31852B45
:1016160002307B020318102B112B2C2B0130FB07F9
:101626007B03031D172B182B1E2B0730A000013040
:10163600933118238A3102307B06031D232B242B7A
:10164600852B0A302000A0000130933118238A31FF
:10165600852BFB0105302100E2000A302000A000A6
:101666000030933118238A31852B06302100E200A1
:101676000B302000A0000030933118238A31852BCF
:1016860007302100E2000D302000A0000030933129
:1016960018238A31852B08302100E2002000A001A2
:1016A6000130933118238A31852B2100E2019231D2
:1016B60072228A31852B210062082000A300A40132
:1016C6002408003A0319682B582B2308003A0319FB
:1016D600DA2A013A0319E92A033A0319F42A013AE4
:1016E6000319FF2A073A03190B2B013A0319382B62
:1016F600033A0319432B013A03194E2B0F3A0319E8
:10170600582B582B0800023022003D06031D8C2B57
:101716008D2BA82B21006108803160208B3122009F
:101726003E1C962B972B322C0130CF070A304F02E6
:10173600031C9E2B9F2B322CBD012100E20192310E
:1017460072228B312200CF01322C823112228B3150
:101756000B2CA001A00A0030933118238B31322CB8
:101766000430A0000030933118238B31322C07301F
:10177600A0000030933118238B31322C0930A000A1
:101786000030933118238B31322C0430A000013005
:10179600933118238B31322C0730A000013093315E
:1017A60018238B31322C0A30A000013093311823D4
:1017B6008B31322C7B08003A0319C12B013A0319ED
:1017C600C82B033A0319CF2B013A0319D62B322C17
:1017D6000A30A0000030933118238B31322C0B30A5
:1017E600A0000030933118238B31322C0D30A0002D
:1017F6000030933118238B31322CA0010130933104
:1018060018238B31322C0C30923153228B31322CEF
:10181600210062082000EA00EB016B08003A031978
:10182600152C062C6A08003A0319062C013A0319EE
:10183600AC2B033A0319B32B013A0319BA2B073A17
:101846000319DD2B013A0319EB2B033A0319F22B8B
:10185600013A0319F92B0F3A0319002C062C08003C
:10186600F6007608F039F7007608F5000430F5350D
:10187600890B3A2C7508F039F80023000F0C890CF7
:101886000139F50011081F397504031D4B2C4C2C2A
:10189600402C11141118502C512C4D2C0F0C890C66
:1018A6000139F50011081F397504031D5B2C5C2CEA
:1018B600512C4E309631C4268C3123000F0C890CE6
:1018C6000139F50011081F397504031D6B2C6C2CAA
:1018D600602C7708740408389631C4268C312300AE
:1018E6000F0C890C0139F50011081F397504031D09
:1018F6007D2C7E2C722C770874040C389631C42605
:101906008C3123000F0C890C0139F50011081F39A1
:101916007504031D8F2C902C842C0000770874040A
:1019260008389631C4268C3123000F0C890C0139F6
:10193600F50011081F397504031DA22CA32C972C42
:101946007808740408389631C4268C3123000F0CAD
:10195600890C0139F50011081F397504031DB42CD3
:10196600B52CA92C780874040C389631C4268C3111
:1019760023000F0C890C0139F50011081F39750475
:10198600031DC62CC72CBB2C00007808740408382D
:101996009631C4268C3123000F0C890C0139F500D1
:1019A60011081F397504031DD92CDA2CCE2C1115FC
:1019B6001119DE2CDF2CDB2C1030890BE02C0032C9
:1019C600080001302000B900B51BEA2CEC2C0130D0
:1019D600ED2C0030BC0021005C082000BB0021007B
:1019E6005B082000BA003C080319FA2CFB2C0F2DCB
:1019F600FF30BA07FF30BB3D3C08031D032D042D05
:101A0600092D2B30B7000030B8000D2D2D30B70052
:101A16000030B8003708BC001F30BD000030BE00E3
:101A26002300C9014B2DFF302000BD07FF30BE3D0E
:101A36003D08AA3E8600013087000A30F2000030D9
:101A4600F3003508F5003408F40097315C278C3133
:101A56007308F9007208F8009231F3228C31780885
:101A6600303E81002000B901FF30BA07FF30BB3D90
:101A76000A30F2000030F3003508F5003408F400AF
:101A860088318F208C3173082000B5007208B400AD
:101A960020003E08803AB60080303602031D552DE0
:101AA60001303D02031C582D592D762D2000340897
:101AB6003504031D5F2D602D162D3908031D642D79
:101AC600652D162D3B08803AB60080303602031D80
:101AD6006E2D01303A02031C712D722D762DFA18E7
:101AE600752D762D162D20003C0803197B2D7C2D97
:101AF600872DFF30BD07FF30BE3D3D08AA3E86005C
:101B0600013087003C0881003308AC003208AB0086
:101B16003D08AA3EAD003B08AF003A08AE0097313B
:101B2600AD278C3120002C08B3002B08B20008002A
:101B36006430F2000030F30092317B228D312000B8
:101B4600BA00A5303A060319A92DAA2DAE2D8F315C
:101B56002E278D31632E003097310F278D3174304B
:101B6600860000308700643084000130850005302F
:101B76002000B90016001A00B90BBD2D05309731AB
:101B86000F278D3174308600003087005F30840067
:101B96000130850005302000B90016001A00B90B87
:101BA600D02D0A3097310F278D31743086000030E2
:101BB60087005A3084000130850005302000B900C6
:101BC60016001A00B90BE32D0F3097310F278D3110
:101BD600743086000030870055308400013085005F
:101BE60005302000B90016001A00B90BF62D643036
:101BF6008600013087007230840000308500403F47
:101C0600803F413F813F423F823F433F833F443FC6
:101C1600843F9331DD238D31003A031D132E142E9C
:101C2600AA2D5F30860001308700723084000030B4
:101C36008500403F803F413F813F423F823F433FD7
:101C4600833F443F843F9331DD238D31003A031DAA
:101C56002D2E2E2EAA2D5A30860001308700723086
:101C6600840000308500403F803F413F813F423F36
:101C7600823F433F833F443F843F9331DD238D3191
:101C8600003A031D472E482EAA2D553086000130F6
:101C960087007230840000308500403F803F413F1E
:101CA600813F423F823F433F833F443F843F9331DE
:101CB600DD238D31003A0319612E622E632EAA2D83
:101CC60008002000A900A0308600013087002A30D5
:101CD6008400003085000530F90016001A00F90B63
:101CE600702E2608AA002708AB002808AC00290891
:101CF600AD002508AE002908220067020318842ECD
:101D0600852EA92E2A308600003087006430840094
:101D1600013085000530F90016001A00F90B8F2EE8
:101D26006430860001308700203084000030850052
:101D3600403F803F413F813F423F823F433F833F99
:101D4600443F843F00309531F7258E3122006208EA
:101D5600200029020318B02EB12ED52E2A30860077
:101D6600003087005F308400013085000530F900BF
:101D760016001A00F90BBB2E5F3086000130870073
:101D86002030840000308500403F803F413F813F46
:101D9600423F823F433F833F443F843F0530953176
:101DA600F7258E312000250822005E020318DC2E5E
:101DB600DD2E012F2A308600003087005A3084003D
:101DC600013085000530F90016001A00F90BE72EE0
:101DD6005A308600013087002030840000308500AC
:101DE600403F803F413F813F423F823F433F833FE9
:101DF600443F843F0A309531F7258E312200590839
:101E0600200025020318082F092F2D2F2A308600BF
:101E16000030870055308400013085000530F90018
:101E260016001A00F90B132F553086000130870073
:101E36002030840000308500403F803F413F813F95
:101E4600423F823F433F833F443F843F0F309531BB
:101E5600F7258E3108005030860001308700253086
:101E66008400003085000530F90016001A00F90BD1
:101E7600382F25308600003087006430840001301A
:101E860085000530F90016001A00F90B462F693057
:101E96008600013087002A30840000308500053036
:101EA600F90016001A00F90B542F2A30860000306C
:101EB60087005F308400013085000530F900160088
:101EC6001A00F90B622FA5308600013087002F30EB
:101ED6008400003085000530F90016001A00F90B61
:101EE600702F2F308600003087005A308400013072
:101EF60085000530F90016001A00F90B7E2FCA304E
:101F060086000130870034308400003085000530BB
:101F1600F90016001A00F90B8C2F343086000030B9
:101F2600870055308400013085000530F900160021
:101F36001A00F90B9A2F6430860001308700203092
:101F4600840000308500403F803F413F813F423F53
:101F5600823F433F833F443F843F00309531F7251E
:101F66008F315F30860001308700203084000030DA
:101F76008500403F803F413F813F423F823F433F94
:101F8600833F443F843F05309531F7258F315A30E2
:101F96008600013087002030840000308500403FF5
:101FA600803F413F813F423F823F433F833F443F23
:101FB600843F0A309531F7258F3155308600013040
:101FC60087002030840000308500403F803F413F3D
:101FD600813F423F823F433F833F443F843F0F3030
:101FE6009531F7258F316430F2000030F300A530CB
:0A1FF600F4009331FB238F31080043
:10245A0022003E140800FF34013401348F312E2744
:10246A00923108000034003400340034033400345C
:10247A00003400343234003473082100ED0072084D
:10248A00EC000800640080010131890B482A0034FD
:10249A00FE0012001E00FE0B4E2A0034F900F40161
:1024AA0079088C31332492310800F900F401F40AD6
:1024BA0079088C31332492310800623031008D0062
:1024CA008F0191019301920108002F009601970153
:1024DA00980199019A019B01080001309231532217
:1024EA0092310C3092315322923108007308300035
:1024FA009B0072089A001E171E140000000030008C
:10250A001C080800803023008F00083090009101D9
:10251A0003308D00901620009315131608005A30C8
:10252A008600013087007230840000308500053053
:10253A00F70016001A00F70B9E2A0800553086008D
:10254A000130870072308400003085000530F700C2
:10255A0016001A00F70BAD2A080064308600013015
:10256A00870072308400003085000530F7001600BD
:10257A001A00F70BBC2A08005F308600013087007A
:10258A0072308400003085000530F70016001A000A
:10259A00F70BCB2A080024000E1DD42AD52ADC2AE0
:1025AA000E1071088D0070088C000E14E02A710854
:1025BA008D0070088C000800F400740821009E0049
:1025CA00931713131314000021001318ED2AEE2A8F
:1025DA00E92A0D08F3000C08F2000800F91BF62A94
:1025EA00F72AF82A042B78092000A0007909A1000B
:1025FA00A00A0319A10A2008F8002108F900080016
:10260A0092316A2293318731F727933196317D26A9
:10261A009331923162229331933159239331943118
:10262A003824933108002000A100210803191E2B29
:10263A001F2B222BC030A200242B8030A20020089E
:10264A000F392204A2002208923153229331080042
:10265A007208F400322B0130F2077208860001304A
:10266A0087000108031D3A2B3B2B302B740872029A
:10267A00F200F301F21BF30308002E0010102100F0
:10268A006008F1005F08F0009231D02293312100F6
:10269A006C086D040319522B532B582B6D088A00B2
:1026AA006C080A009331080022008E018F01900104
:1026BA009101920193018D0121009E019B019C01D0
:1026CA0094019501960197019A0199019801943014
:1026DA0093009D010800752B240892315A229331E8
:1026EA0020002108A3002008A200A00A0319A10AB9
:1026FA0022088400230885000008A4002408031D7A
:10270A00872B882B712B08000F3023001005F2004D
:10271A00083072060319922B932B9C2B0F3010054D
:10272A00F2000B307206031D9B2B9C2B9D2B9115DF
:10273A000F1CA02BA12B9D2B0C0808000130220096
:10274A00C1073C304102031CAB2BAC2BAF2BC101A0
:10275A000130C0073C304002031CB42BB52BB82B08
:10276A00C0010130BF0718303F02031CBD2BBE2B2E
:10277A00BF2BBF0108009331052393318B170B1729
:10278A002200BD01CF013E10BF01C001C101C2013B
:10279A00C301C4010C30C500C601C7011430C8000A
:1027AA000230C900CA01CB01CC01CD01CE0108001B
:1027BA000130F700720A0319E32BE42BF92B730A91
:1027CA000319E82BE92BF92B740A0319ED2BEE2BCD
:1027DA00F92B750A0319F22BF32BF92B760A031935
:1027EA00F72BF82BF92BF701770808000B0D0B0DC7
:1027FA000139F500730830009B0072089A007408CA
:10280A009C001E171E158B1355309F00AA309F007F
:10281A009E149E18112C122C0E2C1E11750C031CC2
:10282A008B1303188B170800F601F701721C1E2C74
:10283A001F2C232C7408F6077508F73D0130F43570
:10284A00F50D890B242C0130F336F20C890B292C57
:10285A0072087304031D322C332C1B2C7708F300E7
:10286A007608F200080024008F01900101309100DF
:10287A00E1308D007B308C002E00101024000D08F2
:10288A002100E00024000C082100DF002E001A14A9
:10289A002D30F2001230F30092314122943131305E
:1028AA0024008E0008002000A901AA016F2C280824
:1028BA00F600F7017608F2007708F3002708F5001A
:1028CA002608F40088313620943101302000A90707
:1028DA000030AA3D25082907860001308700010833
:1028EA00A8002808031D7A2C7B2C5C2C08002000E9
:1028FA005308D7005208D6002100D901DA01992CD1
:10290A005108C0005008BF005630C1005408C20028
:10291A00C3018331BB23943120003F082100D9072A
:10292A00200040082100DA3D20005608840057089C
:10293A0085001200031DA22CA32C852CD001D101E5
:10294A0008005C302100A000200059082100A200E4
:10295A00200058082100A100A301A401AA01AB018B
:10296A00A1302000D0000030D1005B08D3005A0803
:10297A00D200A030D40094317C249431A130860056
:10298A00003087004231403F200058078400413F11
:10299A00593D8500800108009231872294318731A0
:1029AA007B27943182302000A500DD30890BDB2C97
:1029BA00A50BDB2C003201309231532294312000D6
:1029CA00A0010030933118239431E3302000A00095
:1029DA009830A10093317023943102302000A60070
:1029EA008630A5009930890BF82CA50BF82CA60B7C
:1029FA00F82C92317222943108009331C023953118
:102A0A009431D12495318831002095318D319B251F
:102A1A00953122003E1C122D132D2F2D3E1093317D
:102A2A00A32395319531752595312100670820003A
:102A3A00A50022003F082000A6002200400820002E
:102A4A00A700220041082000A800210068088E3152
:102A5A00642695319531B52595318A312D229531E6
:102A6A008B31862395310E2D80311C28F701F80110
:102A7A00720873040319422D432D702D0130F6009C
:102A8A004D2D0130F235F30D890B472D0130F60734
:102A9A00F31F502D512D462D0130F735F80D890BB6
:102AAA00522D73087502031D5C2D72087402031CF3
:102ABA005F2D602D652D7208F4027308F53B7714BB
:102ACA000130F336F20C890B662D0130F602031D34
:102ADA006F2D702D512D7808F3007708F200080049
:102AEA0001302100E30705306302031C7D2D7E2D92
:102AFA00842DE3018631722695312100E8000030E9
:102B0A009231E12295317308F8007208F70001301A
:102B1A0078020030031977020318942D952D972D0A
:102B2A00F601B12D0230780200300319770203183A
:102B3A009F2DA02DA32D0130F600B12D0330780270
:102B4A000030031977020318AB2DAC2DAF2D0230DC
:102B5A00F600B12D0330F60076082100E7000800E0
:102B6A0020000D0E0139BB000E0E890C0139BC0084
:102B7A0021006B03031DC22DC32DCC2D20003B0861
:102B8A00031DC82DC92DCC2D8A31D922953120009B
:102B9A003B080319D12DD32D0130D42D003021004B
:102BAA00E5006A03031DDA2DDB2DE42D20003C0825
:102BBA00031DE02DE12DE42D85315A2595312000A4
:102BCA003C080319E92DEB2D0130EC2D00302100D2
:102BDA00E40020003B082100EB0020003C08210013
:102BEA00EA000800F8007808F600F7017608F20013
:102BFA007708F30020002008F4009331FB23953175
:102C0A007808013EF200003003180130F30020007A
:102C1A002108F4009331FB2395317808023EF20033
:102C2A00003003180130F30020002208F400933129
:102C3A00FB2395317808033EF20000300318013077
:102C4A00F30020002308F4009331FB239531780820
:102C5A00043EF200003003180130F300200024087B
:102C6A00F4009331FB2395310800F50023000F0C83
:102C7A00890C0139F40011081F397404031D462E0A
:102C8A00472E3B2E111411184B2E4C2E482E0F0C8A
:102C9A00890C0139F40011081F397404031D562EDA
:102CAA00572E4C2E4E309631C426963123000F0CE7
:102CBA00890C0139F40011081F397404031D662EAA
:102CCA00672E5B2E75089631C426963123000F0CA9
:102CDA00890C0139F40011081F397404031D762E7A
:102CEA00772E6B2E111511197B2E7C2E782E08004B
:102CFA0020009A01990196019701980107309500E1
:102D0A000F309100FF309200FF309300FF309400A3
:102D1A00FF303E00D900C730CE00EF30C300073085
:102D2A00E4000F30B800DA01E5011030C400B9013F
:102D3A002030CF00E601BA01C501D001DB01FF3026
:102D4A00BB00FF30C600FF30D100FF30DC00073087
:102D5A00E700FF30BC00FF30C700FF30D200FF3071
:102D6A00DD000730E80013303D00C50014303E0096
:102D7A00A3001530A40014303D00C6000800F3007B
:102D8A00730823008C00901FCB2ECC2ECD2E0E2F35
:102D9A000F301005F200083072060319D52ED62E10
:102DAA00EC2E0F301005F2000B3072060319DE2EDE
:102DBA00DF2EEC2E10162E000F1CE42EE52EE02E30
:102DCA0023000F19E92EEA2E0E2F0F080E2F0F30AF
:102DDA001005F200083072060319F42EF52EFE2EA5
:102DEA000F301005F2000B307206031DFD2EFE2E69
:102DFA000E2F0F18012F022FFE2E0F0C890C0139EE
:102E0A00F20011081F397204031D0C2F0D2F022F17
:102E1A00110808002000A2002208A000A101200831
:102E2A00F2002108F30092317B2297312000A3009F
:102E3A002208013EF200003003180130F3009231FB
:102E4A007B2297312000A4002208023EF2000030C3
:102E5A0003180130F30092317B2297312000A5003C
:102E6A002208033EF200003003180130F3009231C9
:102E7A007B2297312000A6002208043EF20000308F
:102E8A0003180130F30092317B2297312000A7000A
:102E9A0023308600003087007430840000308500BB
:102EAA000530A00016001A00A00B572F0800F701E2
:102EBA00F51F602F612F682FF409F509F40A031929
:102ECA00F50A0130F700F31F6B2F6C2F712FF209EF
:102EDA00F309F20A0319F30A720873040319762F25
:102EEA00772F9E2F0130F600812F0130F235F30D36
:102EFA00890B7B2F0130F607F31F842F852F7A2F3A
:102F0A0073087502031D8B2F72087402031C8E2F1F
:102F1A008F2F932F7208F4027308F53B0130F336B2
:102F2A00F20C890B942F0130F602031D9D2F9E2F60
:102F3A00852F77080319A22FA32FA82FF409F509C3
:102F4A00F40A0319F50A7508F3007408F200080078
:102F5A007A1CB02FB12FBB2F20002D08A5002C08FA
:102F6A00A7002B08A6009431582497312000AF1FE0
:102F7A00BF2FC02FC22FAE01AF01B001B101D62FB2
:102F8A002030F2000030F30020002C08F5002B0856
:102F9A00F40088313620973101302000B007003024
:102FAA00B13D3108803AF8002F08803A7802031DB3
:102FBA00E02F2E083002031CE32FE42FC52F7A18C6
:102FCA00E72FE82FF22F20002D08A5002C08A700D4
:102FDA002B08A60094315824973120002D08F200BE
:102FEA0093312D23973120002E087207AB002F084A
:102FFA00733DAC000800003400340034003400345F
:10300A000034003400340034003400340034003416
:10301A000034003400340034003400340034003406
:10302A0000340034003400340034003400340034F6
:10303A0000340034003425343034323464343A34C1
:10304A0025343034323464343A342534303432342A
:10305A0064342034253463342534633425346334AA
:10306A002034253463342034003425343034323467
:10307A0075343A3425343034323475343A3425349C
:10308A0030343234753420342534303432346434B4
:10309A00433420344C3425347534003441344C34B0
:1030AA00203425343034323464343A3425343034DC
:1030BA00323464343A34253430343234643420348B
:1030CA0020342034003454347434683472343D3437
:1030DA0025343034323464342034433420342034B8
:1030EA002034203420342034203400344C347434D6
:1030FA00683472343D34253464342034283430340E
:10310A002D343334293420342034203420342034EC
:10311A00003441346C34613472346D3473343A346B
:10312A0020344F344E342034203420342034203498
:10313A0020342034003441346C34613472346D34B8
:10314A0073343A3420344F344634463420342034ED
:10315A002034203420342034003453346534743419
:10316A00203463346C346F3463346B3420347434F5
:10317A0069346D34653420342034203400345234B8
:10318A00653473346534743420347234653463348A
:10319A006F34723464347334203453343234203408
:1031AA000034253430343234643443342034203407
:1031BA00203420344C342534643400344C346F3495
:1031CA006134643469346E3467342E342E342E34C8
:1031DA0000345234653473346534743420344434DE
:0831EA006F346E3465340034CB
:020000040001F9
:0A000E00EC3FFF3F9F3FFF3FFF3F25
:00000001FF
