:0400000080311C2807
:1000060008007E14803100308600003087000B1F08
:100016000D280E281A282E001A1C122813281A2812
:10002600101C162817281A289331AA2380317E100F
:10003600090080311E289030840092308500D2302D
:1000460086000030870003309231AC228031FB30CD
:1000560084008730850069308600013087000530CE
:100066009231AC2280319B30840092308500EB3097
:1000760086000130870005309231AC228031FA01CA
:10008600FB01E601E701E801E901EA01EB01C33002
:100096008400003085000F309231A6228031203056
:1000A60084000130850049309231A6228031C63065
:1000B60084000130850025309231A62280317E10E1
:1000C60020009531982D2000410886008701403F89
:1000D600C400413FC500440884004508850012005D
:1000E600253A031D77287828E029410886008701EC
:1000F6000130810741310318810AE601E70100302A
:10010600EA00FF302100CA00FF30CB002000C90101
:10011600A928EA1441088600870101308107413188
:100126000318810AA9280130C900A92841088600B8
:100136008701403FC400413FC5004408840045088C
:1001460085000008303A03198C28962849080319B7
:10015600AD28AE2899284108F8004208F9008931EF
:100166004B21803179082000E7007808E600E71F78
:10017600BD28BE28C4286A14E609E709E60A031959
:10018600E70A410886008701403FC400413FC50099
:1001960044088400450885001200633A031DD428EC
:1001A600D528F728410886008701013081074131AB
:1001B6000318810A42088600430887000108840064
:1001C6008501023081070008C8004008A6003F08E4
:1001D600A5004808A7008931A721803120002608FC
:1001E600C0002508BF00032A410886008701403F5A
:1001F600CE00413FCF004E0884004F088500120014
:10020600643A03190729082912294E0884004F0861
:1002160085001200693A031D112912293D29420859
:1002260086004308870001088400850102308107A3
:10023600003FCA00013FCB004E08013EC40000301B
:100246004F3DC5004108860087014408C03F450868
:10025600C13F4008B3003F08B2004B08B5004A084A
:10026600B4008D31BA25803120003308C000320831
:10027600BF00032A4E0884004F0885001200753A15
:10028600031D462947297C29420886004308870022
:1002960001088400850102308107003FCA00013F42
:1002A600CB004E08013EC40000304F3DC50041085A
:1002B600860087014408C03F4508C13F73294008AE
:1002C600B3003F08B2004B08B5004A08B4008A31B3
:1002D6001022803120003308C0003208BF00032AF4
:1002E6004E0884004F0885000008753A03196229F4
:1002F6007C294E0884004F08850012006E3A031DC3
:1003060085298629AD294208860043088700010809
:100316008400850102308107003FC400013FC5000B
:10032600440886004508870021004808C03F490860
:10033600C13F20004E08013EC40000304F3DC500BD
:100346004108860087014408C03F4508C13FBF01F8
:10035600C001032A410886008701403FC400413F8F
:10036600C50044088400450885001200253A031D8F
:10037600BD29BE29D729410886008701013081079A
:1003860041310318810A2530F2000030F30040089D
:10039600F5003F08F40088319720803101302000B5
:1003A600BF000030C000032A4108860087010130E3
:1003B600810741310318810AAA294108860087016D
:1003C600403FC400413FC5004408840045088500FD
:1003D6000008C600C7014608F2004708F3004008B7
:1003E600F5003F08F400883197208031200041084D
:1003F600860087010130810741310318810AD1291E
:10040600080022003D03031D092A0A2A272A433031
:100416002300BC005430BD004C30BE00220044080E
:10042600031D162A172A1D2A61302300B100003049
:10043600B200222A41302300B1000030B200310858
:10044600BF005230BB00722A4408031D2B2A2C2AF7
:10045600362A20302300BC002030BD002030BE00EC
:100466006130BF00702A4A08031D3A2A3B2A412AF6
:1004760020302300B3000030B400462A4330230066
:10048600B3000030B4003308BC0022004B08031D43
:100496004D2A4E2A542A20302300B5000030B600DB
:1004A600592A54302300B5000030B6003508BD0087
:1004B60022004C08031D602A612A672A2030230087
:1004C600B7000030B8006C2A4C302300B70000306B
:1004D600B8003708BE004130BF002030BB00A03056
:1004E6002100A0002030A1009830A20022003F0881
:1004F6002100B300B4013308A3003408A40022008D
:1005060040082100B500B6013508A5003608A6004A
:10051600220041082100B700B8013708A7003808B3
:10052600A80023003C082100B900BA013908A90037
:100536003A08AA0023003D082100BB00BC013B0885
:10054600AB003C08AC0023003E082100BD00BE0104
:100556003D08AD003E08AE0023003F082100BF0065
:10056600C0013F08AF004008B00023003B0821004F
:10057600C100C2014108B1004208B2009431E4242E
:1005860082312000A0010030933180238231A030D7
:100596002000A0000130A1009331D8238231200031
:1005A600A00101309331802382316E2BA030A00050
:1005B600D830A1009830A2005108B300B401330826
:1005C600A3003408A4005008B500B6013508A500FC
:1005D6003608A6009431E4248231942BA030A00082
:1005E600B430A1009830A2009431E4248231942BD7
:1005F600A030A0005530A1009830A2002200450886
:100606002100B300B4013308A3003408A40022007B
:1006160046082100B500B6013508A5003608A60033
:10062600220047082100B700B8013708A70038089C
:10063600A8009431E4248231942BA030A0006A30C3
:10064600A1009830A200220048082100A300A401BE
:10065600A31BA4039431E4248231942BA030A00080
:100666007D30A1009830A200220049082100B30085
:10067600B4013308A3003408A4009431E424823181
:10068600942B22004408031D492B4A2B502BA230E1
:100696002300B9009830BA00552B90302300B900DA
:1006A6009830BA00A0302100A00023003A082100AB
:1006B600A200230039082100A1009431E4248231EC
:1006C600942BA030A000C630A1009830A20094312F
:1006D600E4248231942B21004C08B300B401340881
:1006E600003A0319772B942B3308003A0319D92AB9
:1006F600013A0319F12A033A0319F12A013A0319B7
:10070600F12A073A0319FB2A013A0319202B033A67
:100716000319312B013A0319442B0F3A0319642BA1
:10072600942BA0302000A0000130A1009331D823E3
:10073600823108002300B100310821005206031956
:10074600A52BA62BAE2B01309231B222833123008A
:1007560031082100D20023003108031DB32BB42B2E
:10076600632C93311A238331723086000030870060
:10077600B23084000130850005302100B300160038
:100786001A00B30BC22B93312923833172308600B2
:1007960000308700B7308400013085000530210025
:1007A600B30016001A00B30BD42B2000A0010030B2
:1007B600933180238331A0302100A0003C30A1007A
:1007C6009830A200230032082100B300B401330898
:1007D600A3003408A400230033082100B500B601A5
:1007E6003508A5003608A600230034082100B70006
:1007F600B8013708A7003808A800230035082100EB
:10080600B900BA013908A9003A08AA002300360837
:100816002100BB00BC013B08AB003C08AC00943196
:10082600E4248331A0302000A0000130A1009331E0
:10083600D82383312000A0010130933180238331F6
:10084600A0302100A0003C30A1009830A200230077
:1008560037082100B300B4013308A3003408A4000C
:10086600230038082100B500B6013508A500360872
:10087600A600230039082100B700B8013708A700F1
:100886003808A80023003A082100B900BA0139083F
:10089600A9003A08AA0023003B082100BB00BC01BE
:1008A6003B08AB003C08AC009431E4248331A03013
:1008B6002000A0000130A1009331D82383310A2DF6
:1008C6009231FC2283317230860000308700BC30C2
:1008D60084000130850005302100B30016001A009F
:1008E600B30B712C93310B238331723086000030A9
:1008F6008700C13084000130850005302100B30037
:1009060016001A00B30B832C2000A001003093318F
:1009160080238331A0302100A0003C30A100983014
:10092600A20023003C082100B300B4013308A30051
:100936003408A40023003D082100B500B60135089F
:10094600A5003608A60023003E082100B700B8011E
:100956003708A7003808A80023003F082100B9007F
:10096600BA013908A9003A08AA0023004008210064
:10097600BB00BC013B08AB003C08AC009431E4244E
:100986008331A0302000A0000130A1009331D8238C
:1009960083312000A0010130933180238331A030C0
:1009A6002100A0003C30A1009830A200230041089D
:1009B6002100B300B4013308A3003408A4002300C7
:1009C60042082100B500B6013508A5003608A60084
:1009D600230043082100B700B8013708A7003808EC
:1009E600A800230044082100B900BA013908A9006B
:1009F6003A08AA00230045082100BB00BC013B08B9
:100A0600AB003C08AC009431E42483315A2C080036
:100A16002200CF01083021004C06031D132D142D92
:100A2600392D92319322853101309231B2228531AE
:100A36002000A0010030933180238531F030200062
:100A4600A0009830A1009331D8238531C33020000F
:100A5600B900CD30890B2D2DB90B2D2D2100CC01E0
:100A66002200BD019231D12285311F2E0230220093
:100A76003D06031D3F2D402D4D2D7A08031D442DA7
:100A8600452D482D0130FA001F2EFA01BD01210027
:100A9600CC01352D21004C08031D522D532DFE2D62
:100AA60022003D08031D582D592DFE2D0230BD0094
:100AB600FA01352D1830F2000030F30022003F080D
:100AC600013EF400003003180130F5009731AF27DE
:100AD600853172082200BF001F2E3C30F200003024
:100AE600F30022004008013EF400003003180130F4
:100AF600F5009731AF27853172082200C0001F2EFE
:100B06003C30F2000030F30022004108013EF400C0
:100B1600003003180130F5009731AF278531720890
:100B26002200C1001F2E7B08031D9A2D9B2DAE2D82
:100B36001830F2000030F30022004508013EF400B0
:100B4600003003180130F5009731AF278531720860
:100B56002200C5001F2E7B03031DB22DB32DC62D0B
:100B66003C30F2000030F30022004608013EF4005B
:100B7600003003180130F5009731AF278531720830
:100B86002200C6001F2E02307B06031DCB2DCC2D66
:100B96001F2E3C30F2000030F30022004708013ED1
:100BA600F400003003180130F5009731AF27853186
:100BB60072082200C7001F2E3330F2000030F30007
:100BC600013022004807F400F5010318F50AC81F92
:100BD600ED2DF5039731AF27853172082200C80045
:100BE6001F2E22004908013E0339C9001F2E01307D
:100BF6002200C4061F2E21004C082000B900BA01AD
:100C06003A08003A0319082E1F2E3908013A03192B
:100C16005D2D033A0319702D013A0319832D073A06
:100C26000319962D013A0319DF2D033A0319F42D02
:100C3600013A0319FA2D1F2E080023000F0C890C08
:100C46000139F40011081F397404031D2B2E2C2EB4
:100C5600202E11141118302E312E2D2E0F0C890C2A
:100C66000139F40011081F397404031D3B2E3C2E74
:100C7600312E9A3097311727863123000F0C890CB5
:100C86000139F40011081F397404031D4B2E4C2E34
:100C9600402E013097311727863123000F0C890C1F
:100CA6000139F40011081F397404031D5B2E5C2EF4
:100CB600502E91149118602E612E5D2E0F0C890C0A
:100CC6000139F40011081F397404031D6B2E6C2EB4
:100CD600612E9B3097311727863123000F0C890C24
:100CE6000139F40011081F397404031D7B2E7C2E74
:100CF600702E9331F1238631F50023000F0C890CF9
:100D06000139F40011081F397404031D8B2E8C2E33
:100D1600802E91161116111A912E922E8E2E0F0CD0
:100D2600890C0139F40011081F397404031D9C2E27
:100D36009D2E922E11151119A12EA22E9E2E751FD3
:100D4600A52EA62E202E0F0C890C0139F4001108B1
:100D56001F397404031DB02EB12EA62E11141118BE
:100D6600B52EB62EB22E0F0C890C0139F4001108DF
:100D76001F397404031DC02EC12EB62E9A3097312A
:100D86001727863123000F0C890C0139F40011084E
:100D96001F397404031DD02ED12EC52E0030973175
:100DA6001727863123000F0C890C0139F40011082E
:100DB6001F397404031DE02EE12ED52E91149118CF
:100DC600E52EE62EE22E0F0C890C0139F4001108EF
:100DD6001F397404031DF02EF12EE62E9B30973139
:100DE6001727863123000F0C890C0139F4001108EE
:100DF6001F397404031D002F012FF52E9331F123A3
:100E06008631F50023000F0C890C0139F400110816
:100E16001F397404031D102F112F052F911611165B
:100E2600111A162F172F132F0F0C890C0139F400E6
:100E360011081F397404031D212F222F172F111596
:100E46001119262F272F232F7508080055308600E5
:100E56000130870025308400003085000530F90018
:100E660016001A00F90B332F253086000030870054
:100E7600C3308400003085000530F90016001A00E2
:100E8600F90B412F69308600013087002A30840033
:100E9600003085000530F90016001A00F90B4F2FB7
:100EA6002A308600003087006430840001308500D7
:100EB6000530F90016001A00F90B5D2F5030860038
:100EC600013087002F308400003085000530F9009E
:100ED60016001A00F90B6B2F2F30860000308700A2
:100EE6005F308400013085000530F90016001A00D5
:100EF600F90B792FEB3086000130870034308400FF
:100F0600003085000530F90016001A00F90B872F0E
:100F160034308600003087005A3084000130850066
:100F26000530F90016001A00F90B952FC33086001C
:100F3600003087002030840000308500403F803F2D
:100F4600413F813F423F823F433F833F443F843F8F
:100F5600003096318D268731643086000130870057
:100F66002030840000308500403F803F413F813F74
:100F7600423F823F433F833F443F843F05309631A3
:100F86008D2687315F30860001308700203084004F
:100F960000308500403F803F413F813F423F823FD6
:100FA600433F833F443F843F0A3096318D26873145
:100FB6005A308600013087002030840000308500DA
:100FC600403F803F413F813F423F823F433F833F17
:100FD600443F843F0F3096318D2687316430F200CE
:100FE6000030F300A530F400943163248731080003
:0A0FF60000340034003432340034BB
:10100200F50023000F0C890C0139F40011081F3977
:101012007404031D0D280E28022811141118122819
:1010220013280F280F0C890C0139F40011081F39FD
:101032007404031D1D281E2813284E3097311727CC
:10104200883123000F0C890C0139F40011081F3973
:101052007404031D2D282E2822287508973117277E
:10106200883123000F0C890C0139F40011081F3953
:101072007404031D3D283E283228111511194228F7
:1010820043283F28080020006A1C48284928522883
:101092002D08A5002C08A7002B08A6009431C02417
:1010A20088312000AF1F562857285928AE01AF01BA
:1010B200B001B1016D282030F2000030F3002000B1
:1010C2002C08F5002B08F400883197208831013074
:1010D2002000B0070030B13D3108803AF8002F08F7
:1010E200803A7802031D77282E083002031C7A28E2
:1010F2007B285C2820006A187F28802889282D08F0
:10110200A5002C08A7002B08A6009431C024883122
:1011120020002D08F20093319523883120002E08FB
:101122007207AB002F08733DAC0008007408750409
:1011320003199C289D28A32874087504031DA2285E
:10114200A328A8287208803103208831EF28740868
:10115200860087014931160001040319B128B2281B
:10116200D1287408860087014931403F2000A00041
:10117200413FA1007408860087014231403FA2002E
:10118200413FA3002308803AA4002108803A2402A8
:10119200031DCD28200822020318D028D128EF28C9
:1011A200740886008701423174088400750885003E
:1011B200003F2000A000013FA100403F2007840023
:1011C200413F213D85007208800074088600870136
:1011D20042310130810741310318810A0800F701C9
:1011E200F31FF428F528FC28F209F309F20A03197F
:1011F200F30A0130F700F51FFF2800290729F40937
:10120200F509F40A0319F50A0130F706F801F901A4
:101212007208730403190E290F293C290130F600C4
:1012220019290130F235F30D890B13290130F60724
:10123200F31F1C291D2912290130F835F90D890BDC
:101242001E2973087502031D282972087402031CE3
:101252002B292C2931297208F4027308F53B7814E2
:101262000130F336F20C890B32290130F602031DEC
:101272003B293C291D297708031940294129462980
:10128200F809F909F80A0319F90A7908F300780844
:10129200F20008002000A401A50178088600870159
:1012A200403FA000413FA1002008840021088500A2
:1012B20012002A3A031D5E295F298E2978088600CA
:1012C20087010130810741310318810A79088600BC
:1012D200870101088400850102308107003FA400D4
:1012E200013FA500A2292508F3002408F2000A30D4
:1012F200F4000030F5009431812489312000230864
:101302007207A4000030733DA500780886008701AB
:101312000130810741310318810A7808860087016C
:10132200403FA000413FA100200884002108850021
:101332000008D03EA3000A302302031CA129A229DF
:1013420074292508F9002408F8000800200066081E
:101352006704031DAD29AE29B3296708AB006608EF
:10136200AA00B9296608FF3EAA00FF30673DAB001C
:101372006A1CBC29BD29CB292708F600F70176088B
:10138200F2007708F3002608F5002508F4008831FA
:10139200972089312000AB1BCF29D029D129D3290D
:1013A200AA01AB01A801A901E7292030F20000300F
:1013B200F30020002608F5002508F4008831972064
:1013C200893101302000A8070030A93D2908803A60
:1013D200F6002B08803A7602031DF1292A0828021A
:1013E200031CF429F529D62920006A18F929FA29BB
:1013F200082A2708F600F7017608F2007708F300BA
:101402002608F5002508F40088319720893120004C
:101412002808013EA5000030293DA6000800013041
:101422002000B6006708B8006608B7001F30B90090
:101432000030BA002300EA014B2AFF30B907FF301F
:10144200BA3D3908CB3E8600013087000A30F200EF
:101452000030F3003508F5003408F40095316625B4
:101462008A317208303E81002000B601FF30B70792
:10147200FF30B83D0A30F2000030F3003508F500C5
:101482003408F4009531D1258A3173082000B50063
:101492007208B400200039083A040319512A522A6A
:1014A2006F2A34083504031D572A582A1E2A360883
:1014B200031D5C2A5D2A1E2A3808803AF900803012
:1014C2007902031D662A01303702031C692A6A2A3F
:1014D2006F2A2000EA186E2A6F2A1E2A200033087B
:1014E200AC003208AB003908CB3EAD003808AF0083
:1014F2003708AE00883144208A3120002C08B3001E
:101502002B08B20008004130F900EE30890B872A1F
:10151200F90B872A00323030883101208A31343089
:10152200883101208A31A630890B952A0032303069
:10153200883101208A310730F9007D30890B9F2ADA
:10154200F90B9F2A00003030883101208A31343073
:10155200883101208A31A630890BAD2A0032303021
:10156200883101208A312130890BB52A00003030C0
:10157200883101208A313430883101208A31A63005
:10158200890BC12A00323030883101208A31213062
:10159200890BC92A00002030883101208A31243089
:1015A200883101208A31A630890BD52A00322030B9
:1015B200883101208A310730F9007D30890BDF2A1A
:1015C200F90BDF2A0000F40128308C3157248A31CC
:1015D200F40106308C3157248A31F4010F308C31FA
:1015E20057248A31F40101308C3157248A31033077
:1015F200F9009830890BFB2AF90BFB2A080022001C
:10160200410820006B060319072B082B292B220007
:1016120041082000EB00160D160D0139F2000130D1
:10162200F206F20CF20C160872067F397206960068
:1016320022004E0803191E2B1F2B292B0130CE022C
:101642004E08031D252B262B292BCD012000161316
:1016520022004408031D2E2B2F2B3A2B200096121A
:10166200161216132200CA01CB01CC01CD01CE0104
:10167200AA2B4808F200F301F21BF3037308803A25
:10168200F40080307402031D492B210051087202BC
:10169200031C4C2B4E2B01304F2B0030F600220046
:1016A200490821005002031C572B592B01305A2B99
:1016B2000030F700760C2000031C961203189616D1
:1016C200770C031C161203181616F50122004A089D
:1016D200031D6C2B6D2B832B3F084506031D722BBC
:1016E200732B832B40084606031D782B792B832B03
:1016F20041084706031D7E2B7F2B832B0130CA0036
:101702000130F50076080319872B882B912B4B08A3
:10171200031D8C2B8D2B912B0130CB000130F5005A
:1017220077080319952B962B9F2B4C08031D9A2B98
:101732009B2B9F2B0130CC000130F500750803195B
:10174200A32BA42BAA2B0130CD000330CE00200006
:1017520016170800023022003D06031DB12BB22BE2
:10176200CC2B7A0883319D238B3122003E1CBA2B6D
:10177200BB2B562C0130CF070A304F02031CC22B61
:10178200C32B562CBD012100CC019231D1228B31C9
:101792002200CF01562C823104228B312F2CA00142
:1017A200A00A0030933180238B31562C0430A000E4
:1017B2000030933180238B31562C0730A00000304B
:1017C200933180238B31562C0930A00000309331A5
:1017D20080238B31562C0430A000013093318023BA
:1017E2008B31562C0730A0000130933180238B318E
:1017F200562C0A30A0000130933180238B31562CB5
:101802007B08003A0319E52B013A0319EC2B033A42
:101812000319F32B013A0319FA2B562C0A30A000B4
:101822000030933180238B31562C0B30A0000030D6
:10183200933180238B31562C0D30A0000030933130
:1018420080238B31562CA0010130933180238B31C0
:10185200562C0C309231B2228B31562C21004C087E
:101862002000E400E5016508003A0319392C2A2C0E
:101872006408003A03192A2C013A0319D02B033ABF
:101882000319D72B013A0319DE2B073A0319012C4E
:10189200013A03190F2C033A0319162C013A0319C2
:1018A2001D2C0F3A0319242C2A2C0800F600760866
:1018B200F039F7007608F5000430F535890B5E2C17
:1018C2007508F039F80023000F0C890C0139F50076
:1018D20011081F397504031D6F2C702C642C111410
:1018E2001118742C752C712C0F0C890C0139F50010
:1018F20011081F397504031D7F2C802C752C4E3066
:10190200973117278C3123000F0C890C0139F50010
:1019120011081F397504031D8F2C902C842C770815
:1019220074040838973117278C3123000F0C890C67
:101932000139F50011081F397504031DA12CA22CD1
:10194200962C770874040C38973117278C312300B2
:101952000F0C890C0139F50011081F397504031D9C
:10196200B32CB42CA82C00007708740408389731E3
:1019720017278C3123000F0C890C0139F50011084F
:101982001F397504031DC62CC72CBB2C78087404A0
:101992000838973117278C3123000F0C890C013935
:1019A200F50011081F397504031DD82CD92CCD2C34
:1019B200780874040C38973117278C3123000F0CE8
:1019C200890C0139F50011081F397504031DEA2C31
:1019D200EB2CDF2C000078087404083897311727A5
:1019E2008C3123000F0C890C0139F50011081F39C5
:1019F2007504031DFD2CFE2CF22C11151119022D5C
:101A0200032DFF2C1030890B042D00320800922D7B
:101A120001302200BD0001302100CC000F30923194
:101A2200B2228D312000A001A00A00309331802320
:101A32008D31B92D02302100CC0004302000A000ED
:101A42000030933180238D31B92D03302100CC0039
:101A520007302000A0000030933180238D31B92D52
:101A620004302100CC00FB0104302000A000013032
:101A7200933180238D31B92D02307B020318422D20
:101A8200432D5E2D0130FB077B03031D492D4A2D9B
:101A9200502D0730A0000130933180238D31023068
:101AA2007B06031D552D562DB92D0A302000A000AE
:101AB2000130933180238D31B92DFB010530210096
:101AC200CC000A302000A0000030933180238D31F9
:101AD200B92D06302100CC000B302000A0000030D0
:101AE200933180238D31B92D07302100CC000D3088
:101AF2002000A0000030933180238D31B92D0830B1
:101B02002100CC002000A0010130933180238D31CF
:101B1200B92D2200BD012100CC019231D1228D319B
:101B2200B92D21004C082000A300A4012408003A8A
:101B320003199C2D8A2D2308003A0319092D013A15
:101B420003191B2D033A0319262D013A0319312DCE
:101B5200073A03193D2D013A03196A2D033A031975
:101B6200752D013A0319802D0F3A03198A2D8A2DFA
:101B7200080001302000B900B51BC02DC22D013074
:101B8200C32D0030BC006708BB006608BA003C08E1
:101B92000319CC2DCD2DE12DFF30BA07FF30BB3D0F
:101BA2003C08031DD52DD62DDB2D2B30B700003080
:101BB200B800DF2D2D30B7000030B8003708BC0068
:101BC2001F30BD000030BE002300EA011C2EFF3092
:101BD200BD07FF30BE3D3D08CB3E86000130870089
:101BE2000A30F2000030F3003508F5003408F40042
:101BF2009731AF278D317308F9007208F8009331DD
:101C02005B238D317808303E81002000B901FF301E
:101C1200BA07FF30BB3D0A30F2000030F30035084E
:101C2200F5003408F4008831F0208D31730820006B
:101C3200B5007208B40020003E08803AB600803039
:101C42003602031D262E01303D02031C292E2A2EA8
:101C5200482E200034083504031D302E312EE82D85
:101C62003908031D352E362EE82D3B08803AB60082
:101C720080303602031D3F2E01303A02031C422EF1
:101C8200432E482E2000EA18472E482EE82D200029
:101C92003C0803194D2E4E2E592EFF30BD07FF3042
:101CA200BE3D3D08CB3E8600013087003C088100E6
:101CB2003308AC003208AB003D08CB3EAD003B0818
:101CC200AF003A08AE00883144208D3120002C0844
:101CD200B3002B08B20008006430F2000030F300B9
:101CE2009231E3228E312000BA00A5303A06031960
:101CF2007B2E7C2E802E873129278E31352F003086
:101D0200973162278E317430860000308700C330ED
:101D120084000030850005302000B90016001A004A
:101D2200B90B8F2E0530973162278E3174308600C1
:101D320000308700643084000130850005302000C7
:101D4200B90016001A00B90BA22E0A309731622789
:101D52008E3174308600003087005F30840001309D
:101D6200850005302000B90016001A00B90BB52E07
:101D72000F30973162278E31743086000030870031
:101D82005A3084000130850005302000B900160069
:101D92001A00B90BC82EC33086000030870072309B
:101DA200840000308500403F803F413F813F423FF9
:101DB200823F433F833F443F843F943145248E31E9
:101DC200003A031DE52EE62E7C2E6430860001309B
:101DD20087007230840000308500403F803F413FE1
:101DE200813F423F823F433F833F443F843F9431A0
:101DF20045248E31003A031DFF2E002F7C2E5F30CA
:101E02008600013087007230840000308500403F38
:101E1200803F413F813F423F823F433F833F443FB8
:101E2200843F943145248E31003A031D192F1A2F15
:101E32007C2E5A30860001308700723084000030D8
:101E42008500403F803F413F813F423F823F433FC9
:101E5200833F443F843F943145248E31003A031935
:101E6200332F342F352F7C2E08002000A900C630D6
:101E72008600013087002A3084000030850005305A
:101E8200F90016001A00F90B422F2608AA002708AB
:101E9200AB002808AC002908AD002508AE002908CF
:101EA200210046020318562F572F7B2F2A30860017
:101EB20000308700C3308400003085000530F9000F
:101EC20016001A00F90B612FC3308600003087001C
:101ED2002030840000308500403F803F413F813FF9
:101EE200423F823F433F833F443F843F003096312D
:101EF2008D268F3122006708200029020318822FC5
:101F0200832FA72F2A308600003087006430840098
:101F1200013085000530F90016001A00F90B8D2FEB
:101F22006430860001308700203084000030850054
:101F3200403F803F413F813F423F823F433F833F9B
:101F4200443F843F053096318D268F31200025088D
:101F5200220063020318AE2FAF2FD32F2A30860040
:101F6200003087005F308400013085000530F900C1
:101F720016001A00F90BB92F5F3086000130870076
:101F82002030840000308500403F803F413F813F48
:101F9200423F823F433F833F443F843F0A30963172
:101FA2008D268F3122005E08200025020318DA2FC9
:101FB200DB2FFF2F2A308600003087005A30840042
:101FC200013085000530F90016001A00F90BE52FE3
:101FD2005A308600013087002030840000308500AE
:101FE200403F803F413F813F423F823F433F833FEB
:0E1FF200443F843F0F3096318D268F3108001A
:10251A0022003E140800FF34013401348731292790
:10252A00923108009231EF229231080000340034CF
:10253A0000340034033473082100D6007208D50031
:10254A000800640080010131890BA72A0034FE00CB
:10255A0012001E00FE0BAD2A0034F900F4017908BE
:10256A008C31572492310800F900F401F40A7908F1
:10257A008C31572492310800623031008D008F016E
:10258A0091019301920108002F0096019701980189
:10259A0099019A019B01080001309231B2229231CD
:1025AA000C309231B2229231080023008F01083098
:1025BA009000910103308D009012080073083000DA
:1025CA009B0072089A001E171E14000000003000BB
:1025DA001C080800803023008F0008309000910109
:1025EA0003308D00901620009315131608005F30F3
:1025FA008600013087007230840000308500053083
:10260A00F70016001A00F70B062B08005A3086004E
:10261A000130870072308400003085000530F700F1
:10262A0016001A00F70B152B0800C330860000307D
:10263A00870072308400003085000530F7001600EC
:10264A001A00F70B242B080064308600013087003B
:10265A0072308400003085000530F70016001A0039
:10266A00F70B332B080024000E1D3C2B3D2B442B6B
:10267A000E1071088D0070088C000E14482B71081A
:10268A008D0070088C000800F400740821009E0078
:10269A00931713131314000021001318552B562BEC
:1026AA00512B0D08F3000C08F2000800F91B5E2BF1
:1026BA005F2B602B6C2B78092000A0007909A10000
:1026CA00A00A0319A10A2008F8002108F900080045
:1026DA009231C92293319231DA2293319631D0263E
:1026EA0093319231C12293319331C1239331943181
:1026FA00A024933108002000A10021080319862B89
:10270A00872B8A2BC030A2008C2B8030A200200895
:10271A000F392204A20022089231B2229331080012
:10272A007208F4009A2B0130F20772088600013011
:10273A0087000108031DA22BA32B982B7408720291
:10274A00F200F301F21BF30308002E001010200020
:10275A006908F1006808F0009331382393312100A9
:10276A00550856040319BA2BBB2BC02B56088A00EE
:10277A0055080A009331080022008E018F0190014A
:10278A009101920193018D0121009E019B019C01FF
:10279A0094019501960197019A0199019801943043
:1027AA0093009D010800DD2B24089231B922933150
:1027BA0020002108A3002008A200A00A0319A10AE8
:1027CA0022088400230885000008A4002408031DA9
:1027DA00EF2BF02BD92B08000F3023001005F20045
:1027EA00083072060319FA2BFB2B042C0F30100544
:1027FA00F2000B307206031D032C042C052C9115D4
:10280A000F1C082C092C052C0C080800013022008A
:10281A00C1073C304102031C132C142C172CC10194
:10282A000130C0073C304002031C1C2C1D2C202CFC
:10283A00C0010130BF0718303F02031C252C262C8B
:10284A00272CBF01080093316D2394318B170B1786
:10285A002200BD01CF013E10BF01C001C101C2016A
:10286A00C301C4010C30C500C601C7011430C80039
:10287A000230C900CA01CB01CC01CD01CE0108004A
:10288A000130F700720A03194B2C4C2C612C730A85
:10289A000319502C512C612C740A0319552C562CEF
:1028AA00612C750A03195A2C5B2C612C760A0319C0
:1028BA005F2C602C612CF701770808000B0D0B0DBB
:1028CA000139F500730830009B0072089A007408F9
:1028DA009C001E171E158B1355309F00AA309F00AF
:1028EA009E149E18792C7A2C762C1E11750C031CBA
:1028FA008B1303188B170800F601F701721C862C3C
:10290A00872C8B2C7408F6077508F73D0130F435CF
:10291A00F50D890B8C2C0130F336F20C890B912CB6
:10292A0072087304031D9A2C9B2C832C7708F300DE
:10293A007608F200080024008F019001013091000E
:10294A00E1308D007B308C002E00101024000D0821
:10295A002000E90024000C082000E8002E001A14C8
:10296A008D30F2001230F3009231A02294313130CE
:10297A0024008E0008002000A901AA01D72C2808EB
:10298A00F600F7017608F2007708F3002708F50049
:10299A002608F40088319720943101302000A907D5
:1029AA000030AA3D25082907860001308700010862
:1029BA00A8002808031DE22CE32CC42C0800A3302D
:1029CA002000D800210020082000D9000130DA00B8
:1029DA00DB01DC01E201E3015930D0000030D10013
:1029EA00210022082000D300210021082000D20063
:1029FA005830D40095310B2594312100200820004D
:102A0A005B07860001308700810108002000530817
:102A1A00D7005208D6002100C801C901282D510843
:102A2A00C0005008BF005630C1005408C200C3019C
:102A3A0080316620953120003F082100C807200018
:102A4A0040082100C93D2000560884005708850027
:102A5A001200031D312D322D142DD001D101080091
:102A6A009231EF2295318A318422953182302000C9
:102A7A00A500DD30890B3F2DA50B3F2D003201301B
:102A8A009231B22295312000A00100309331802387
:102A9A009531E5302000A0009830A1009331D82369
:102AAA00953102302000A6008630A5009930890BA6
:102ABA005C2DA50B5C2DA60B5C2D9231D122953194
:102ACA0008007208730403196B2D6C2D932D0130C5
:102ADA00F600762D0130F235F30D890B702D013099
:102AEA00F607F31F792D7A2D6F2D73087502031DD2
:102AFA00802D72087402031C832D842D882D720880
:102B0A00F4027308F53B0130F336F20C890B892D78
:102B1A000130F602031D922D932D7A2D7508F300CC
:102B2A007408F2000800943128249531953135252E
:102B3A0095319231972295318E316D269531220049
:102B4A003E1CA82DA92DC52D3E1094310B2495317C
:102B5A0096310B269531210050082000A50022004D
:102B6A003F082000A600220040082000A7002200FB
:102B7A0041082000A800210051088F3136279531DD
:102B8A0096314B2695318B31002395318B31AB230E
:102B9A009531A42D80311C28F701F80172087304BD
:102BAA000319D82DD92D062E0130F600E32D013058
:102BBA00F235F30D890BDD2D0130F607F31FE62DF3
:102BCA00E72DDC2D0130F735F80D890BE82D730858
:102BDA007502031DF22D72087402031CF52DF62DE1
:102BEA00FB2D7208F4027308F53B77140130F336B3
:102BFA00F20C890BFC2D0130F602031D052E062E60
:102C0A00E72D7808F3007708F20008000130210068
:102C1A00CD0705304D02031C132E142E1A2ECD019A
:102C2A008631202696312100D10000309331492384
:102C3A0096317308F8007208F70001307802003004
:102C4A000319770203182A2E2B2E2D2EF601472E52
:102C5A00023078020030031977020318352E362E17
:102C6A00392E0130F600472E03307802003003195E
:102C7A0077020318412E422E452E0230F600472EC7
:102C8A000330F60076082100D000080020000D0E5F
:102C9A000139BB000E0E890C0139BC002100540316
:102CAA00031D582E592E622E20003B08031D5E2E4E
:102CBA005F2E622E8D310825963120003B080319BC
:102CCA00672E692E01306A2E00302100CF0053038F
:102CDA00031D702E712E7A2E20003C08031D762EBD
:102CEA00772E7A2E85310B25963120003C08031960
:102CFA007F2E812E0130822E00302100CE0020004E
:102D0A003B082100D40020003C082100D300080021
:102D1A00F8007808F600F7017608F2007708F30061
:102D2A0020002008F4009431632496317808013E8B
:102D3A00F200003003180130F30020002108F400EB
:102D4A009431632496317808023EF2000030031869
:102D5A000130F30020002208F400943163249631F4
:102D6A007808033EF200003003180130F300200017
:102D7A002308F4009431632496317808043EF20063
:102D8A00003003180130F30020002408F4009431C5
:102D9A0063249631080020009A019901960197014F
:102DAA009801073095000F309100FF309200FF30F4
:102DBA009300FF309400FF303E00D900C730CE00A8
:102DCA00EF30C3000730E4000F30B800DA01E50144
:102DDA001030C400B9012030CF00E601BA01C501A4
:102DEA00D001DB01FF30BB00FF30C600FF30D1004D
:102DFA00FF30DC000730E700FF30BC00FF30C700BF
:102E0A00FF30D200FF30DD000730E80013303D000C
:102E1A00C50014303E00A3001530A40014303D0054
:102E2A00C6000800F300730823008C00901F1E2FB1
:102E3A001F2F202F612F0F301005F2000830720665
:102E4A000319282F292F3F2F0F301005F2000B30BE
:102E5A0072060319312F322F3F2F10162E000F1C26
:102E6A00372F382F332F23000F193C2F3D2F612F77
:102E7A000F08612F0F301005F2000830720603198F
:102E8A00472F482F512F0F301005F2000B307206D2
:102E9A00031D502F512F612F0F18542F552F512FCB
:102EAA000F0C890C0139F20011081F397204031D35
:102EBA005F2F602F552F110808002000A20022085A
:102ECA00A000A1012008F2002108F3009231E322B8
:102EDA0097312000A3002208013EF20000300318B7
:102EEA000130F3009231E32297312000A400220836
:102EFA00023EF200003003180130F3009231E3225F
:102F0A0097312000A5002208033EF2000030031882
:102F1A000130F3009231E32297312000A600220803
:102F2A00043EF200003003180130F3009231E3222C
:102F3A0097312000A70023308600003087007430C4
:102F4A008400003085000530A00016001A00A00B8E
:102F5A00AA2F0800F701F51FB32FB42FBB2FF409CE
:102F6A00F509F40A0319F50A0130F700F31FBE2F19
:102F7A00BF2FC42FF209F309F20A0319F30A7208E0
:102F8A0073040319C92FCA2FF12F0130F600D42F69
:102F9A000130F235F30D890BCE2F0130F607F31FFE
:102FAA00D72FD82FCD2F73087502031DDE2F720875
:102FBA007402031CE12FE22FE62F7208F402730851
:102FCA00F53B0130F336F20C890BE72F0130F6029C
:102FDA00031DF02FF12FD82F77080319F52FF62F9D
:102FEA00FB2FF409F509F40A0319F50A7508F30029
:102FFA007408F2000800003400340034003400344D
:10300A000034003400340034003400340034003416
:10301A000034003400340034003400340034003406
:10302A0000340034003400340034003400340034F6
:10303A0000340034003425343034323464343A34C1
:10304A0025343034323464343A342534303432342A
:10305A0064342034253463342534633425346334AA
:10306A002034253463342034253463340034253441
:10307A003034323475343A34253430343234753499
:10308A003A342534303432347534203425343034EB
:10309A0032346434433420344C34253475340034A7
:1030AA0041344C34203425343034323464343A34A4
:1030BA0025343034323464343A34253430343234BA
:1030CA006434203420342034003454347434683462
:1030DA0072343D3425343034323464342034433449
:1030EA002034203420342034203420342034003456
:1030FA004C347434683472343D34253464342034A6
:10310A00283430342D3433342934203420342034D4
:10311A0020342034003441346C34613472346D34D8
:10312A0073343A3420344F344E342034203420342B
:10313A002034203420342034003441346C34613457
:10314A0072346D3473343A3420344F34463446344E
:10315A0020342034203420342034203400345334B2
:10316A0065347434203463346C346F3463346B34B0
:10317A002034743469346D34653420342034203476
:10318A000034523465347334653474342034723400
:10319A00653463346F347234643473342034533492
:1031AA0032342034003425343034323464344334F5
:1031BA0020342034203420344C3425346434003410
:1031CA004C346F346134643469346E3467342E3469
:1031DA002E342E34003452346534733465347434E6
:0C31EA00203444346F346E3465340034FB
:020000040001F9
:0A000E00EC3FFF3F9F3FFF3FFF3F25
:00000001FF
