:1000000080311C28013401347E1480310030860098
:10001000003087000B1F0D280E281A282E001A1CEE
:10002000122813281A28101C162817281A288B3172
:10003000112380317E10090080311E28803102207A
:100040008031EC00803103208031ED00FA01FB01AA
:10005000653084000030850007308A318522803188
:10006000BF3084000030850019308A31852280310C
:1000700020308400013085003D308A318522803176
:100080007E1020008C31092C21004C08031D4928CA
:100090004A28502820302300B5000030B6005528EB
:1000A00043302300B5000030B6003508B100210010
:1000B0004D08031D5C285D28632820302300B7000D
:1000C0000030B800682854302300B7000030B80072
:1000D0003708B20021004E08031D6F2870287628CB
:1000E00020302300B9000030BA007B284C302300B8
:1000F000B9000030BA003908B30021004608031DDA
:1001000082288328892861302300BB000030BC008E
:100110008E2841302300BB000030BC003B08B400F7
:10012000A0302100A0002030A1009030A2004108A2
:10013000B100B2013108A3003208A4004208B300A4
:10014000B4013308A5003408A6004308B500B60181
:100150003508A7003608A800230031082100B700A1
:10016000B8013708A9003808AA0023003208210086
:10017000B900BA013908AB003A08AC0023003308D3
:100180002100BB00BC013B08AD003C08AE002300D1
:1001900034082100BD00BE013D08AF003E08B0009C
:1001A0008C314E2480312000A00100308731EB27B4
:1001B0008031A0302000A0000130A1008B313F230E
:1001C00080312000A00101308731EB2780316C297C
:1001D000A030A000BD30A1009030A2005708B100AF
:1001E000B2013108A3003208A4005608B300B401DC
:1001F0003308A5003408A6008C314E2480319229A2
:10020000A030A0009930A1009030A2008C314E2483
:1002100080319229A030A0003A30A1009030A20095
:100220004708B100B2013108A3003208A400480811
:10023000B300B4013308A5003408A6004908B5008E
:10024000B6013508A7003608A8008C314E2480314D
:100250009229A030A0004F30A1009030A2004A089F
:10026000A300A401A31BA4038C314E248031922946
:10027000A030A0006230A1009030A2004B08B10075
:10028000B2013108A3003208A4008C314E24803121
:100290009229460803194D294E295829A030A0005B
:1002A0007530A1009030A2008C314E24803192290B
:1002B000A030A0008730A1009030A2008C314E24E5
:1002C00080319229A030A000AB30A1009030A20074
:1002D0008C314E248031922921005408B100B201A2
:1002E0003208003A0319752992293108003A031996
:1002F000E828013A03190029033A03190029013AB1
:1003000003190029073A03190A29013A031929296F
:10031000033A03193829013A031949290F3A0319F5
:1003200062299229A0302000A0000130A1008B3169
:100330003F238031080023000F0C890C0139F400A1
:1003400011081F397404031DA629A7299B2911141C
:100350001118AB29AC29A8290F0C890C0139F4001C
:1003600011081F397404031DB629B729AC299A3026
:100370008D31F225813123000F0C890C0139F400F5
:1003800011081F397404031DC629C729BB29013070
:100390008D31F225813123000F0C890C0139F400D5
:1003A00011081F397404031DD629D729CB299114AC
:1003B0009118DB29DC29D8290F0C890C0139F400AC
:1003C00011081F397404031DE629E729DC299B3035
:1003D0008D31F225813123000F0C890C0139F40095
:1003E00011081F397404031DF629F729EB298B31F5
:1003F00058238131F50023000F0C890C0139F400DA
:1004000011081F397404031D062A072AFB299116B7
:100410001116111A0C2A0D2A092A0F0C890C013900
:10042000F40011081F397404031D172A182A0D2A15
:10043000111511191C2A1D2A192A751F202A212A73
:100440009B290F0C890C0139F40011081F39740421
:10045000031D2B2A2C2A212A11141118302A312A83
:100460002D2A0F0C890C0139F40011081F3974046E
:10047000031D3B2A3C2A312A9A308D31F2258131E5
:1004800023000F0C890C0139F40011081F39740482
:10049000031D4B2A4C2A402A00308D31F225813130
:1004A00023000F0C890C0139F40011081F39740462
:1004B000031D5B2A5C2A502A91149118602A612A34
:1004C0005D2A0F0C890C0139F40011081F397404DE
:1004D000031D6B2A6C2A612A9B308D31F2258131F4
:1004E00023000F0C890C0139F40011081F39740422
:1004F000031D7B2A7C2A702A8B3158238131F50019
:1005000023000F0C890C0139F40011081F39740401
:10051000031D8B2A8C2A802A91161116111A912AF2
:10052000922A8E2A0F0C890C0139F40011081F3908
:100530007404031D9C2A9D2A922A11151119A12ABF
:10054000A22A9E2A7508080020004108860087011B
:10055000403FC300413FC400430884004408850075
:100560001200253A031DB52AB62A792B41088600C8
:1005700087010130810741310318810AE501E60155
:100580000030E900FF302100D100FF30D200200010
:10059000CC01E72AE9144108860087010130810770
:1005A00041310318810AE72A0130CC00E72A4108CB
:1005B00086008701403FC300413FC40043088400D8
:1005C000440885000008303A0319CA2AD42A4C0886
:1005D0000319EB2AEC2AD72A4108F8004208F9004F
:1005E0008F314227823179082000E6007808E50043
:1005F000E61FFB2AFC2A022B6914E509E609E50A35
:100600000319E60A410886008701403FC300413FC5
:10061000C40043088400440885001200633A031DA7
:10062000122B132B2F2B41088600870101308107E5
:1006300041310318810A42088600870101088400BD
:100640008501023081070008CB004008A6003F0862
:10065000A5004B08A7008F319E278231932B4108BC
:1006600086008701403FCD00413FCE004D08840009
:100670004E0885001200643A03193F2B402B4A2B89
:100680004D0884004E0885001200693A031D492B6D
:100690004A2B6F2B420886008701010884008501E0
:1006A00002308107003FC700013FC8004D08013EEE
:1006B000C30000304E3DC400410886008701430856
:1006C000C03F4408C13F4008B3003F08B20048089B
:1006D000B5004708B4008431FB248231932B2000FD
:1006E0004108860087010130810741310318810AE2
:1006F000932B410886008701403FC300413FC4005F
:1007000043088400440885000008C500C601450868
:10071000F2004608F3004008F5003F08F4008E316F
:100720008E2682316F2B0800262C1830F200003004
:10073000F3004108013EF400003003180130F500D9
:100740008E313D26833172082100C100492C3C3096
:10075000F2000030F3004208013EF40000300318BC
:100760000130F5008E313D26833172082100C20030
:10077000492C3C30F2000030F3004308013EF40005
:10078000003003180130F5008E313D2683317208A8
:100790002100C300492C0130FA00492C1830F20026
:1007A0000030F3004708013EF40000300318013028
:1007B000F5008E313D26833172082100C700492C97
:1007C0003C30F2000030F3004808013EF4000030F5
:1007D00003180130F5008E313D2683317208210067
:1007E000C800492C3C30F2000030F3004908013EBB
:1007F000F400003003180130F5008E313D268331BE
:1008000072082100C900492C7A08003A0319CB2B41
:10081000013A0319CE2B033A0319E02B013A0319CD
:10082000F22B492C4A08803A4E3E0318182C192CFA
:100830001C2C0130CA07492CCA01492C4B08013E27
:100840000339CB00492C0130C606492C210054083D
:10085000F800F9017908003A03192F2C492C78087F
:10086000013A0319952B033A0319A72B013A0319EF
:10087000B92B073A0319042C013A0319122C033A35
:1008800003191E2C013A0319232C0F3A0319492C82
:10089000492C0800F6007608F039F7007608F500D4
:1008A0000430F535890B512C7508F039F800230018
:1008B0000F0C890C0139F50011081F397504031D4F
:1008C000622C632C572C11141118672C682C642C83
:1008D0000F0C890C0139F50011081F397504031D2F
:1008E000722C732C682C4E308D31F225843123000C
:1008F0000F0C890C0139F50011081F397504031D0F
:10090000822C832C772C7708740408388D31F225DB
:10091000843123000F0C890C0139F50011081F39AF
:100920007504031D942C952C892C770874040C38BD
:100930008D31F225843123000F0C890C0139F5002B
:1009400011081F397504031DA62CA72C9B2C000031
:100950007708740408388D31F225843123000F0C98
:10096000890C0139F50011081F397504031DB92CD4
:10097000BA2CAE2C7808740408388D31F2258431F5
:1009800023000F0C890C0139F50011081F3975047B
:10099000031DCB2CCC2CC02C780874040C388D3162
:1009A000F225843123000F0C890C0139F500110860
:1009B0001F397504031DDD2CDE2CD22C00007808B5
:1009C000740408388D31F225843123000F0C890C12
:1009D0000139F50011081F397504031DF02CF12CA5
:1009E000E52C11151119F52CF62CF22C1030890B71
:1009F000F72C0032080001302000B900B51B012D92
:100A0000032D0130042D0030BC006608BB006508D2
:100A1000BA003C0803190D2D0E2D222DFF30BA0708
:100A2000FF30BB3D3C08031D162D172D1C2D2B3010
:100A3000B7000030B800202D2D30B7000030B800CE
:100A40003708BC001F30BD000030BE002200DC01B2
:100A50005D2DFF30BD07FF30BE3D3D083D3E8600A9
:100A6000013087000A30F2000030F3003508F5004D
:100A70003408F4008E313D2684317308F900720881
:100A8000F8008A31EC2284317808303E8100200061
:100A9000B901FF30BA07FF30BB3D0A30F200003029
:100AA000F3003508F5003408F4008E31E726843170
:100AB00073082000B5007208B40020003E08803A98
:100AC000B60080303602031D672D01303D02031C45
:100AD0006A2D6B2D892D200034083504031D712DDE
:100AE000722D292D3908031D762D772D292D3B08D0
:100AF000803AB60080303602031D802D01303A0264
:100B0000031C832D842D892D2000E918882D892D23
:100B1000292D20003C0803198E2D8F2D9A2DFF3092
:100B2000BD07FF30BE3D3D083D3E860001308700D9
:100B30003C0881003308AC003208AB003D083D3E64
:100B4000AD003B08AF003A08AE008D316525843119
:100B50000800210043087B060319AF2DB02DD02DCE
:100B60004308FB002000160D160D0139F20001307C
:100B7000F206F20CF20C160872067F397206960025
:100B8000210050080319C52DC62DD02D0130D002EB
:100B90005008031DCC2DCD2DD02DCF0120001613D4
:100BA00021004A08F200F301F21BF3037308803AB4
:100BB000F40080307402031DDF2D57087202031CFD
:100BC000E22DE42D0130E52D0030F60021004B0828
:100BD0005602031CEC2DEE2D0130EF2D0030F700F6
:100BE000760C2000031C961203189616770C031C33
:100BF00016120318161621004608031D002E012E9A
:100C0000092ECC01CD01CE01CF01D0012000161359
:100C10004C2EF5014C08031D0E2E0F2E252E4108DB
:100C20004706031D142E152E252E42084806031DC7
:100C30001A2E1B2E252E43084906031D202E212E79
:100C4000252E0130CC000130F50076080319292E3D
:100C50002A2E332E4D08031D2E2E2F2E332E01301B
:100C6000CD000130F50077080319372E382E412EBC
:100C70004E08031D3C2E3D2E412E0130CE0001308A
:100C8000F50075080319452E462E4C2E0130CF0075
:100C90000330D00020001617080021005408031D5F
:100CA000522E532E572E803144208631E12E803132
:100CB00044208631BA2EA001A00A00308731EB27EC
:100CC0008631E12E0430A00000308731EB278631D9
:100CD000E12E0730A00000308731EB278631E12E6E
:100CE0000930A00000308731EB278631E12E043037
:100CF000A00001308731EB278631E12E0730A000BC
:100D000001308731EB278631E12E0A30A000013017
:100D10008731EB278631E12E7A08003A0319702ECD
:100D2000013A0319772E033A03197E2E013A03196B
:100D3000852EE12E0A30A00000308731EB27863166
:100D4000E12E0B30A00000308731EB278631E12EF9
:100D50000D30A00000308731EB278631E12EA00155
:100D600001308731EB278631E12E0C308A318B221E
:100D70008631E12E210054082000E300E4016408DC
:100D8000003A0319C42EB52E6308003A0319B52E94
:100D9000013A03195B2E033A0319622E013A031933
:100DA000692E073A03198C2E013A03199A2E033A39
:100DB0000319A12E013A0319A82E0F3A0319AF2ED9
:100DC000B52E0800472F2100CC01CD01CE01013006
:100DD000D4000F308A318B2286312000A001A00A76
:100DE00000308731EB2786316E2F02302100D4008E
:100DF00004302000A00000308731EB2786316E2FB1
:100E000003302100D40007302000A00000308731DB
:100E1000EB2786316E2F04302100D4000D302000E6
:100E2000A00000308731EB2786316E2F053021007E
:100E3000D4000A302000A00000308731EB27863133
:100E4000FA0106302100D4000B302000A000003051
:100E50008731EB2786316E2F07302100D4000D300B
:100E60002000A00000308731EB2786316E2F08303C
:100E70002100D4002000A00101308731EB2786310A
:100E80006E2F2100D4018A31AA2286316E2F2100D3
:100E900054082000A300A4012408003A0319512F8C
:100EA000412F2308003A0319E32E013A0319F52EC6
:100EB000033A0319002F013A03190B2F073A0319BC
:100EC000162F013A0319212F033A03192C2F013A47
:100ED0000319372F0F3A0319412F412F08004130D2
:100EE000F900EE30890B722FF90B722F003230307F
:100EF0008D312225873134308D3122258731A6303E
:100F0000890B802F003230308D3122258731073018
:100F1000F9007D30890B8A2FF90B8A2F00003030C1
:100F20008D312225873134308D3122258731A6300D
:100F3000890B982F003230308D31222587312130B6
:100F4000890BA02F000030308D31222587313430BD
:100F50008D3122258731A630890BAC2F00323030FD
:100F60008D31222587312130890BB42F00002030AC
:100F70008D312225873124308D3122258731A630CD
:100F8000890BC02F003220308D3122258731073068
:100F9000F9007D30890BCA2FF90BCA2F0000F4012C
:100FA000283084314A248731F401063084314A24C0
:100FB0008731F4010F3084314A248731F401013044
:100FC00084314A2487310330F9009830890BE62FA9
:100FD000F90BE62F08002000A10021080319F12FCA
:100FE000F22FF52FC030A200F72F8030A20020088A
:100FF0000F392204A20022088A318B22873108008F
:1014EE0008002100401408008A31BC228A3108000D
:1014FE0073082200DE007208DD000800640080011F
:10150E000131890B862A0034F900F40179088431FF
:10151E004A248A310800623031008D008F0191011A
:10152E009301920108002F009601970198019901ED
:10153E009A019B010800F900F401F40A790884313C
:10154E004A248A31080001308A318B228A310C30CC
:10155E008A318B228A31080023008F0108309000D7
:10156E00910103308D0090120800803023008F000F
:10157E0008309000910103308D00901620009315D5
:10158E001316080024000E1DCD2ACE2AD52A0E10C1
:10159E0071088D0070088C000E14D92A71088D0008
:1015AE0070088C000800F400740821009E00931748
:1015BE0013131314000021001318E62AE72AE22A57
:1015CE000D08F3000C08F2000800F91BEF2AF02AB0
:1015DE00F12AFD2A78092000A0007909A100A00AAD
:1015EE000319A10A2008F8002108F90008008A3121
:1015FE009A228A318A31B3228A318D31AB258A31D2
:10160E008A3192228A318B3128238A318B31E92318
:10161E008A3108002E00101020006808F1006708BB
:10162E00F0008A31C9228B3122005D085E04031955
:10163E00212B222B272B5E088A005D080A008B3196
:10164E00080022008E018F019001910192019301F9
:10165E008D0121009E019B019C0194019501960133
:10166E0097019A0199019801943093009D01080009
:10167E00442B24088A31A2228B3120002108A3009A
:10168E002008A200A00A0319A10A22088400230838
:10169E0085000008A4002408031D562B572B402B51
:1016AE0008000F3023001005F200083072060319EF
:1016BE00612B622B6B2B0F301005F2000B30720674
:1016CE00031D6A2B6B2B6C2B91150F1C6F2B702B24
:1016DE006C2B0C08080001302100C3073C3043027C
:1016EE00031C7A2B7B2B7E2BC3010130C2073C30AF
:1016FE004202031C832B842B872BC2010130C107AE
:10170E0018304102031C8C2B8D2B8E2BC10108002F
:10171E008A31FE228B318B170B172100BF0140102F
:10172E00C101C201C301C401C501C601C701053013
:10173E00C8000530C9001630CA000230CB00CC01FB
:10174E00CD01CE01CF01D001080020005208D600F5
:10175E005108D500BD2B5008C0004F08BF005530B2
:10176E00C1005308C2008231A4228B3120005508DB
:10177E008400560885001200031DC62BC72BB22B02
:10178E00CF01D0010800F601F701721CCF2BD02B30
:10179E00D42B7408F6077508F73D0130F435F50DB6
:1017AE00890BD52B0130F336F20C890BDA2B72082C
:1017BE007304031DE32BE42BCC2B7708F300760880
:1017CE00F200080024008F01900101309100E130F9
:1017DE008D007B308C002E00101024000D08200090
:1017EE00E80024000C082000E7002E001A147830C0
:1017FE00F2000A30F3008A317F228B31313024001F
:10180E008E0008008B318F238C318C3175248C31F6
:10181E008A317B228C312100401C162C172C1E2C59
:10182E0040108B3172238C318C31E2248C318C310F
:10183E00A7248C318531A9258C3186314D268C31EA
:10184E00122C80311C282000A901AA01412C280845
:10185E00F600F7017608F2007708F3002708F50086
:10186E002608F4008E318E268C3101302000A90717
:10187E000030AA3D2508290786000130870001089F
:10188E00A8002808031D4C2C4D2C2E2C0800A3302C
:10189E002000D700210020082000D8000130D900F8
:1018AE00DA01DB01E101E2015830CF000030D00057
:1018BE00210022082000D200210021082000D100A2
:1018CE005730D3008B31AC238C31210020082000FF
:1018DE005A07860001308700810108008A31BC2238
:1018EE008C3187316F278C3182302000A500DD309E
:1018FE00890B7F2CA50B7F2C003201308A318B2275
:10190E008C312000A00100308731EB278C31CA309A
:10191E002000A0009030A1008B313F238C31043089
:10192E002000A6008E30A5001230890B9C2CA50B32
:10193E009C2CA60B9C2C00008A31AA228C3108000C
:10194E0020000D0E0139A5000E0E890C0139A600DE
:10195E006D03031DB32CB42CBC2C2508031DB82C11
:10196E00B92CBC2C8631E2268C31200025080319B7
:10197E00C12CC32C0130C42C0030EB006C03031DB2
:10198E00C92CCA2CD22C2608031DCE2CCF2CD22C1F
:10199E00833194238C31200026080319D72CD92C9F
:1019AE000130DA2C00302100D50020002508ED0092
:1019BE002608EC00080001302000EA0705306A0214
:1019CE00031CEA2CEB2CF12CEA0181319B218C318A
:1019DE002100D70000308A31DA228C317308F800EA
:1019EE007208F700013078020030031977020318ED
:1019FE00012D022D042DF6011E2D0230780200302D
:101A0E000319770203180C2D0D2D102D0130F60041
:101A1E001E2D033078020030031977020318182D9B
:101A2E00192D1C2D0230F6001E2D0330F6007608FF
:101A3E002100D6000800F50023000F0C890C013997
:101A4E00F40011081F397404031D2E2D2F2D232D84
:101A5E0011141118332D342D302D0F0C890C013922
:101A6E00F40011081F397404031D3E2D3F2D342D33
:101A7E004E308D31F2258D3123000F0C890C01393A
:101A8E00F40011081F397404031D4E2D4F2D432DE4
:101A9E0075088D31F2258D3123000F0C890C01391B
:101AAE00F40011081F397404031D5E2D5F2D532D94
:101ABE0011151119632D642D602D08002000691C6D
:101ACE00692D6A2D732D2D08A5002C08A7002B0853
:101ADE00A6008C312A248D312000AF1F772D782D52
:101AEE007A2DAE01AF01B001B1018E2D2030F20082
:101AFE000030F30020002C08F5002B08F4008E3186
:101B0E008E268D3101302000B0070030B13D3108F6
:101B1E00803AF8002F08803A7802031D982D2E087F
:101B2E003002031C9B2D9C2D7D2D20006918A02DAD
:101B3E00A12DAA2D2D08A5002C08A7002B08A60064
:101B4E008C312A248D31080020009A0199019601CA
:101B5E0097019801073095000F309100FF309200E9
:101B6E00FF309300FF309400FF303E00D900C730A5
:101B7E00CE00EF30C3000730E4000F30B800DA01BA
:101B8E00E5011030C400B9012030CF00E601BA01E2
:101B9E00C501D001DB01FF30BB00FF30C600FF30B6
:101BAE00D100FF30DC000730E700FF30BC00FF3013
:101BBE00C700FF30D200FF30DD000730E8001330E1
:101BCE003D00C50014303E00A3001530A4001430B3
:101BDE003D00C6000800F300730823008C00901F20
:101BEE00F92DFA2DFB2D3C2E0F301005F20008308A
:101BFE0072060319032E042E1A2E0F301005F20052
:101C0E000B30720603190C2E0D2E1A2E10162E00E6
:101C1E000F1C122E132E0E2E23000F19172E182EF8
:101C2E003C2E0F083C2E0F301005F20008307206C5
:101C3E000319222E232E2C2E0F301005F2000B30FE
:101C4E007206031D2B2E2C2E3C2E0F182F2E302EEF
:101C5E002C2E0F0C890C0139F20011081F39720459
:101C6E00031D3A2E3B2E302E11080800F701F51FEA
:101C7E00412E422E492EF409F509F40A0319F50AEC
:101C8E000130F700F31F4C2E4D2E522EF209F309A0
:101C9E00F20A0319F30A720873040319572E582E09
:101CAE007F2E0130F600622E0130F235F30D890BD6
:101CBE005C2E0130F607F31F652E662E5B2E730821
:101CCE007502031D6C2E72087402031C6F2E702E8B
:101CDE00742E7208F4027308F53B0130F336F20CE1
:101CEE00890B752E0130F602031D7E2E7F2E662E79
:101CFE0077080319832E842E892EF409F509F40A28
:101D0E000319F50A7508F3007408F2000800740848
:101D1E0075040319932E942E9A2E74087504031DC0
:101D2E00992E9A2E9F2E72088A3177228E31E62EA8
:101D3E007408860087014931160001040319A82E84
:101D4E00A92EC82E7408860087014931403F200015
:101D5E00A000413FA1007408860087014231403F38
:101D6E00A200413FA3002308803AA4002108803A34
:101D7E002402031DC42E200822020318C72EC82ECB
:101D8E00E62E7408860087014231740884007508B7
:101D9E008500003F2000A000013FA100403F20072A
:101DAE008400413F213D8500720880007408860042
:101DBE00870142310130810741310318810A080041
:101DCE00F701F31FEB2EEC2EF32EF209F309F20AB4
:101DDE000319F30A0130F700F51FF62EF72EFE2E2B
:101DEE00F409F509F40A0319F50A0130F706F801AA
:101DFE00F901720873040319052F062F332F0130D2
:101E0E00F600102F0130F235F30D890B0A2F013039
:101E1E00F607F31F132F142F092F0130F835F90D84
:101E2E00890B152F73087502031D1F2F720874027C
:101E3E00031C222F232F282F7208F4027308F53B60
:101E4E0078140130F336F20C890B292F0130F6028B
:101E5E00031D322F332F142F77080319372F382FE6
:101E6E003D2FF809F909F80A0319F90A7908F30060
:101E7E007808F20008002000A401A5017808860069
:101E8E008701403FA000413FA100200884002108A7
:101E9E00850012002A3A031D552F562F852F7808DC
:101EAE00860087010130810741310318810A7908C4
:101EBE008600870101088400850102308107003FFA
:101ECE00A400013FA500992F2508F3002408F20075
:101EDE000A30F4000030F5008B31CA238F31200018
:101EEE0023087207A4000030733DA5007808860011
:101EFE0087010130810741310318810A7808860075
:101F0E008701403FA000413FA10020088400210826
:101F1E0085000008D03EA3000A302302031C982F30
:101F2E00992F6B2F2508F9002408F80008002000CF
:101F3E0065086604031DA42FA52FAA2F6608AB0003
:101F4E006508AA00B02F6508FF3EAA00FF30663D67
:101F5E00AB00691CB32FB42FC22F2708F600F70170
:101F6E007608F2007708F3002608F5002508F4003D
:101F7E008E318E268F312000AB1BC62FC72FC82F58
:101F8E00CA2FAA01AB01A801A901DE2F2030F20051
:101F9E000030F30020002608F5002508F4008E31ED
:101FAE008E268F3101302000A8070030A93D290868
:101FBE00803AF6002B08803A7602031DE82F2A0895
:101FCE002802031CEB2FEC2FCD2F20006918F02FC9
:101FDE00F12FFF2F2708F600F7017608F200770899
:101FEE00F3002608F5002508F4008E318E268F3179
:101FFE00080000340034003400340034003400345F
:10200E000034003400340034003400340034003422
:10201E000034003400340034003400340034003412
:10202E000034003400340034003400340034003402
:10203E00003425343034323464343A342534303478
:10204E00323464343A342534303432346434203407
:10205E0025346334253463342534633420342534F5
:10206E0063342034003441344C342034253430343D
:10207E00323464343A3425343034323464343A34BD
:10208E002534303432346434203420342034003457
:10209E0054347434683472343D342534303432342C
:1020AE00643420344334203420342034203420341B
:1020BE002034203400344C347434683472343D345B
:1020CE00253464342034283430342D3433342934D8
:1020DE0020342034203420342034003441346C3405
:1020EE00613472346D3473343A3420344F344E3498
:1020FE002034203420342034203420342034003452
:10210E0041346C34613472346D3473343A34203467
:10211E004F34463446342034203420342034203496
:10212E0020340034533465347434203463346C34C6
:10213E006F3463346B342034743469346D346534E5
:10214E0020342034203400345234653473346534F2
:10215E00743420347234653463346F3472346434BE
:10216E007334203453343234203400342534303434
:10217E00323464342034433420344C34203420340C
:10218E002534643400344C346F346134643469342F
:0C219E006E3467342E342E342E3400349E
:020000040001F9
:0A000E00EC3FFF3F9F3FFF3FFF3F25
:00000001FF
